{
	"data": {
		"bytecode": {
			"linkReferences": {},
			"object": "60806040526113ec60025f6101000a81548161ffff021916908361ffff160217905550621275006002806101000a81548163ffffffff021916908363ffffffff160217905550348015610050575f5ffd5b5060405161320e38038061320e8339818101604052810190610072919061021f565b805f73ffffffffffffffffffffffffffffffffffffffff168173ffffffffffffffffffffffffffffffffffffffff16036100e3575f6040517f1e4fbdf70000000000000000000000000000000000000000000000000000000081526004016100da9190610259565b60405180910390fd5b6100f28161010060201b60201c565b506001808190555050610272565b5f5f5f9054906101000a900473ffffffffffffffffffffffffffffffffffffffff169050815f5f6101000a81548173ffffffffffffffffffffffffffffffffffffffff021916908373ffffffffffffffffffffffffffffffffffffffff1602179055508173ffffffffffffffffffffffffffffffffffffffff168173ffffffffffffffffffffffffffffffffffffffff167f8be0079c531659141344cd1fd0a4f28419497f9722a3daafe3b4186f6b6457e060405160405180910390a35050565b5f5ffd5b5f73ffffffffffffffffffffffffffffffffffffffff82169050919050565b5f6101ee826101c5565b9050919050565b6101fe816101e4565b8114610208575f5ffd5b50565b5f81519050610219816101f5565b92915050565b5f60208284031215610234576102336101c1565b5b5f6102418482850161020b565b91505092915050565b610253816101e4565b82525050565b5f60208201905061026c5f83018461024a565b92915050565b612f8f8061027f5f395ff3fe6080604052600436106100eb575f3560e01c8063715018a611610089578063e03d7f5511610058578063e03d7f5514610312578063ef9218261461034e578063f2fde38b14610376578063fe0d94c11461039e5761012b565b8063715018a6146102655780638da5cb5b1461027b578063c7f758a8146102a5578063cd2ddd0c146102e85761012b565b806341234bdf116100c557806341234bdf146101a757806349705bbb146101e35780635bfadb24146102135780636db5c8fd1461023b5761012b565b80630527aab61461012f5780631338736f1461015757806340e58ee51461017f5761012b565b3661012b576040517f08c379a000000000000000000000000000000000000000000000000000000000815260040161012290611f2a565b60405180910390fd5b5f5ffd5b34801561013a575f5ffd5b5061015560048036038101906101509190611f83565b6103c6565b005b348015610162575f5ffd5b5061017d60048036038101906101789190611fe1565b610492565b005b34801561018a575f5ffd5b506101a560048036038101906101a0919061201f565b610659565b005b3480156101b2575f5ffd5b506101cd60048036038101906101c891906120a4565b61091c565b6040516101da9190612186565b60405180910390f35b6101fd60048036038101906101f891906121df565b6109af565b60405161020a919061222c565b60405180910390f35b34801561021e575f5ffd5b5061023960048036038101906102349190611fe1565b610fb4565b005b348015610246575f5ffd5b5061024f6112a7565b60405161025c9190612254565b60405180910390f35b348015610270575f5ffd5b506102796112bb565b005b348015610286575f5ffd5b5061028f6112ce565b60405161029c919061227c565b60405180910390f35b3480156102b0575f5ffd5b506102cb60048036038101906102c6919061201f565b6112f5565b6040516102df9897969594939291906122d1565b60405180910390f35b3480156102f3575f5ffd5b506102fc61146e565b604051610309919061235c565b60405180910390f35b34801561031d575f5ffd5b5061033860048036038101906103339190612375565b611481565b604051610345919061222c565b60405180910390f35b348015610359575f5ffd5b50610374600480360381019061036f91906123b3565b61156f565b005b348015610381575f5ffd5b5061039c600480360381019061039791906120a4565b611648565b005b3480156103a9575f5ffd5b506103c460048036038101906103bf919061201f565b6116cc565b005b6103ce611aaf565b5f8161ffff161180156103e757506127108161ffff1611155b610426576040517f08c379a000000000000000000000000000000000000000000000000000000000815260040161041d90612428565b60405180910390fd5b5f60025f9054906101000a900461ffff1690508160025f6101000a81548161ffff021916908361ffff1602179055507f45d2d241726de5df0302442ca7fad06a2bfd91d02b509ec1a7f0bee52714363a8183604051610486929190612446565b60405180910390a15050565b61049a611b36565b5f81116104dc576040517f08c379a00000000000000000000000000000000000000000000000000000000081526004016104d3906124b7565b60405180910390fd5b5f6104e683611b7c565b90505f816002015f9054906101000a900473ffffffffffffffffffffffffffffffffffffffff1690508073ffffffffffffffffffffffffffffffffffffffff166323b872dd3330866040518463ffffffff1660e01b815260040161054c939291906124d5565b6020604051808303815f875af1158015610568573d5f5f3e3d5ffd5b505050506040513d601f19601f8201168201806040525081019061058c9190612534565b5082826006015f3373ffffffffffffffffffffffffffffffffffffffff1673ffffffffffffffffffffffffffffffffffffffff1681526020019081526020015f205f8282546105db919061258c565b9250508190555082826005015f8282546105f5919061258c565b925050819055503373ffffffffffffffffffffffffffffffffffffffff16847f55016b6cc60c3d15b7b1ebd0ab766c07b3082c98a5b4d1d7ff012a97652a4b1d85604051610643919061222c565b60405180910390a35050610655611cf6565b5050565b610661611b36565b5f60045f8381526020019081526020015f2090505f73ffffffffffffffffffffffffffffffffffffffff16815f015f9054906101000a900473ffffffffffffffffffffffffffffffffffffffff1673ffffffffffffffffffffffffffffffffffffffff1603610705576040517f08c379a00000000000000000000000000000000000000000000000000000000081526004016106fc90612609565b60405180910390fd5b8060040160089054906101000a900460ff1615801561073357508060040160099054906101000a900460ff16155b610772576040517f08c379a000000000000000000000000000000000000000000000000000000000815260040161076990612671565b60405180910390fd5b806001015f9054906101000a900473ffffffffffffffffffffffffffffffffffffffff1673ffffffffffffffffffffffffffffffffffffffff163373ffffffffffffffffffffffffffffffffffffffff1614610803576040517f08c379a00000000000000000000000000000000000000000000000000000000081526004016107fa906126d9565b60405180910390fd5b60018160040160096101000a81548160ff0219169083151502179055506108708160030154826001015f9054906101000a900473ffffffffffffffffffffffffffffffffffffffff1673ffffffffffffffffffffffffffffffffffffffff16611cff90919063ffffffff16565b806001015f9054906101000a900473ffffffffffffffffffffffffffffffffffffffff1673ffffffffffffffffffffffffffffffffffffffff16815f015f9054906101000a900473ffffffffffffffffffffffffffffffffffffffff1673ffffffffffffffffffffffffffffffffffffffff16837f976dcc58165a4ebb2f9ecccd1f534fce6838f94bc2b9d0f757b30929e64d427d60405160405180910390a450610919611cf6565b50565b606060055f8373ffffffffffffffffffffffffffffffffffffffff1673ffffffffffffffffffffffffffffffffffffffff1681526020019081526020015f208054806020026020016040519081016040528092919081815260200182805480156109a357602002820191905f5260205f20905b81548152602001906001019080831161098f575b50505050509050919050565b5f6109b8611b36565b5f73ffffffffffffffffffffffffffffffffffffffff168373ffffffffffffffffffffffffffffffffffffffff1603610a26576040517f08c379a0000000000000000000000000000000000000000000000000000000008152600401610a1d90612741565b60405180910390fd5b5f8263ffffffff16118015610a57575060028054906101000a900463ffffffff1663ffffffff168263ffffffff1611155b610a96576040517f08c379a0000000000000000000000000000000000000000000000000000000008152600401610a8d906127a9565b60405180910390fd5b5f8390508073ffffffffffffffffffffffffffffffffffffffff166302c7e7af6040518163ffffffff1660e01b8152600401602060405180830381865afa158015610ae3573d5f5f3e3d5ffd5b505050506040513d601f19601f82011682018060405250810190610b079190612534565b15610b47576040517f08c379a0000000000000000000000000000000000000000000000000000000008152600401610b3e90612811565b60405180910390fd5b5f8173ffffffffffffffffffffffffffffffffffffffff166338dfd97c6040518163ffffffff1660e01b8152600401602060405180830381865afa158015610b91573d5f5f3e3d5ffd5b505050506040513d601f19601f82011682018060405250810190610bb59190612843565b11610bf5576040517f08c379a0000000000000000000000000000000000000000000000000000000008152600401610bec906128b8565b60405180910390fd5b8073ffffffffffffffffffffffffffffffffffffffff166338dfd97c6040518163ffffffff1660e01b8152600401602060405180830381865afa158015610c3e573d5f5f3e3d5ffd5b505050506040513d601f19601f82011682018060405250810190610c629190612843565b3414610ca3576040517f08c379a0000000000000000000000000000000000000000000000000000000008152600401610c9a90612920565b60405180910390fd5b5f8173ffffffffffffffffffffffffffffffffffffffff1663501ec7386040518163ffffffff1660e01b815260040161012060405180830381865afa158015610cee573d5f5f3e3d5ffd5b505050506040513d601f19601f82011682018060405250810190610d129190612988565b505050505050925050505f73ffffffffffffffffffffffffffffffffffffffff168173ffffffffffffffffffffffffffffffffffffffff1603610d8a576040517f08c379a0000000000000000000000000000000000000000000000000000000008152600401610d8190612a96565b60405180910390fd5b60035f8154610d9890612ab4565b91905081905592505f60045f8581526020019081526020015f20905085815f015f6101000a81548173ffffffffffffffffffffffffffffffffffffffff021916908373ffffffffffffffffffffffffffffffffffffffff16021790555033816001015f6101000a81548173ffffffffffffffffffffffffffffffffffffffff021916908373ffffffffffffffffffffffffffffffffffffffff16021790555081816002015f6101000a81548173ffffffffffffffffffffffffffffffffffffffff021916908373ffffffffffffffffffffffffffffffffffffffff1602179055503481600301819055508463ffffffff1642610e94919061258c565b816004015f6101000a81548167ffffffffffffffff021916908367ffffffffffffffff16021790555060055f8773ffffffffffffffffffffffffffffffffffffffff1673ffffffffffffffffffffffffffffffffffffffff1681526020019081526020015f2084908060018154018082558091505060019003905f5260205f20015f90919091909150553373ffffffffffffffffffffffffffffffffffffffff168673ffffffffffffffffffffffffffffffffffffffff16857fe6a02ee0702afd40837d3e4096a05f18be862fa93f16775219bbf7c93af55efc858560030154866004015f9054906101000a900467ffffffffffffffff16604051610f9b93929190612afb565b60405180910390a4505050610fae611cf6565b92915050565b610fbc611b36565b5f8111610ffe576040517f08c379a0000000000000000000000000000000000000000000000000000000008152600401610ff5906124b7565b60405180910390fd5b5f60045f8481526020019081526020015f2090505f73ffffffffffffffffffffffffffffffffffffffff16815f015f9054906101000a900473ffffffffffffffffffffffffffffffffffffffff1673ffffffffffffffffffffffffffffffffffffffff16036110a2576040517f08c379a000000000000000000000000000000000000000000000000000000000815260040161109990612609565b60405180910390fd5b5f816006015f3373ffffffffffffffffffffffffffffffffffffffff1673ffffffffffffffffffffffffffffffffffffffff1681526020019081526020015f2054905082811015611128576040517f08c379a000000000000000000000000000000000000000000000000000000000815260040161111f90612b7a565b60405180910390fd5b82816111349190612b98565b826006015f3373ffffffffffffffffffffffffffffffffffffffff1673ffffffffffffffffffffffffffffffffffffffff1681526020019081526020015f2081905550828260050154106111a15782826005015f8282546111959190612b98565b925050819055506111ab565b5f82600501819055505b816002015f9054906101000a900473ffffffffffffffffffffffffffffffffffffffff1673ffffffffffffffffffffffffffffffffffffffff1663a9059cbb33856040518363ffffffff1660e01b8152600401611209929190612bcb565b6020604051808303815f875af1158015611225573d5f5f3e3d5ffd5b505050506040513d601f19601f820116820180604052508101906112499190612534565b503373ffffffffffffffffffffffffffffffffffffffff16847ff1c2201ab8d3afe0ab6336204843b66bb25c5f27d6de3490c9a463fd18d294a985604051611291919061222c565b60405180910390a350506112a3611cf6565b5050565b60028054906101000a900463ffffffff1681565b6112c3611aaf565b6112cc5f611dc5565b565b5f5f5f9054906101000a900473ffffffffffffffffffffffffffffffffffffffff16905090565b5f5f5f5f5f5f5f5f5f60045f8b81526020019081526020015f2090505f73ffffffffffffffffffffffffffffffffffffffff16815f015f9054906101000a900473ffffffffffffffffffffffffffffffffffffffff1673ffffffffffffffffffffffffffffffffffffffff16036113a1576040517f08c379a000000000000000000000000000000000000000000000000000000000815260040161139890612609565b60405180910390fd5b805f015f9054906101000a900473ffffffffffffffffffffffffffffffffffffffff16816001015f9054906101000a900473ffffffffffffffffffffffffffffffffffffffff16826002015f9054906101000a900473ffffffffffffffffffffffffffffffffffffffff168360030154846004015f9054906101000a900467ffffffffffffffff168560040160089054906101000a900460ff168660040160099054906101000a900460ff1687600501549850985098509850985098509850985050919395975091939597565b60025f9054906101000a900461ffff1681565b5f5f60045f8581526020019081526020015f2090505f73ffffffffffffffffffffffffffffffffffffffff16815f015f9054906101000a900473ffffffffffffffffffffffffffffffffffffffff1673ffffffffffffffffffffffffffffffffffffffff1603611526576040517f08c379a000000000000000000000000000000000000000000000000000000000815260040161151d90612609565b60405180910390fd5b806006015f8473ffffffffffffffffffffffffffffffffffffffff1673ffffffffffffffffffffffffffffffffffffffff1681526020019081526020015f205491505092915050565b611577611aaf565b610e108163ffffffff161015801561159857506276a7008163ffffffff1611155b6115d7576040517f08c379a00000000000000000000000000000000000000000000000000000000081526004016115ce90612c3c565b60405180910390fd5b5f60028054906101000a900463ffffffff169050816002806101000a81548163ffffffff021916908363ffffffff1602179055507fa0f6bda4cc3a4861cf8c2b2f875763162bfb837e9bd2f267895fd45c49697e78818360405161163c929190612c5a565b60405180910390a15050565b611650611aaf565b5f73ffffffffffffffffffffffffffffffffffffffff168173ffffffffffffffffffffffffffffffffffffffff16036116c0575f6040517f1e4fbdf70000000000000000000000000000000000000000000000000000000081526004016116b7919061227c565b60405180910390fd5b6116c981611dc5565b50565b6116d4611b36565b5f6116de82611b7c565b90505f816002015f9054906101000a900473ffffffffffffffffffffffffffffffffffffffff1673ffffffffffffffffffffffffffffffffffffffff166318160ddd6040518163ffffffff1660e01b8152600401602060405180830381865afa15801561174d573d5f5f3e3d5ffd5b505050506040513d601f19601f820116820180604052508101906117719190612843565b90505f81116117b5576040517f08c379a00000000000000000000000000000000000000000000000000000000081526004016117ac90612ccb565b60405180910390fd5b8060025f9054906101000a900461ffff1661ffff166117d49190612ce9565b61271083600501546117e69190612ce9565b1015611827576040517f08c379a000000000000000000000000000000000000000000000000000000000815260040161181e90612d74565b60405180910390fd5b5f825f015f9054906101000a900473ffffffffffffffffffffffffffffffffffffffff1690508073ffffffffffffffffffffffffffffffffffffffff166302c7e7af6040518163ffffffff1660e01b8152600401602060405180830381865afa158015611896573d5f5f3e3d5ffd5b505050506040513d601f19601f820116820180604052508101906118ba9190612534565b156118fa576040517f08c379a00000000000000000000000000000000000000000000000000000000081526004016118f190612811565b60405180910390fd5b82600301548173ffffffffffffffffffffffffffffffffffffffff166338dfd97c6040518163ffffffff1660e01b8152600401602060405180830381865afa158015611948573d5f5f3e3d5ffd5b505050506040513d601f19601f8201168201806040525081019061196c9190612843565b146119ac576040517f08c379a00000000000000000000000000000000000000000000000000000000081526004016119a390612ddc565b60405180910390fd5b60018360040160086101000a81548160ff0219169083151502179055508073ffffffffffffffffffffffffffffffffffffffff16635c4bfa1084600301546040518263ffffffff1660e01b81526004015f604051808303818588803b158015611a13575f5ffd5b505af1158015611a25573d5f5f3e3d5ffd5b5050505050825f015f9054906101000a900473ffffffffffffffffffffffffffffffffffffffff1673ffffffffffffffffffffffffffffffffffffffff16847fff1b123b2ce1194394325209d89105d006a6ae45b909ed087f4cae7fbaca7552856003015433604051611a99929190612dfa565b60405180910390a3505050611aac611cf6565b50565b611ab7611e86565b73ffffffffffffffffffffffffffffffffffffffff16611ad56112ce565b73ffffffffffffffffffffffffffffffffffffffff1614611b3457611af8611e86565b6040517f118cdaa7000000000000000000000000000000000000000000000000000000008152600401611b2b919061227c565b60405180910390fd5b565b600260015403611b72576040517f3ee5aeb500000000000000000000000000000000000000000000000000000000815260040160405180910390fd5b6002600181905550565b5f60045f8381526020019081526020015f2090505f73ffffffffffffffffffffffffffffffffffffffff16815f015f9054906101000a900473ffffffffffffffffffffffffffffffffffffffff1673ffffffffffffffffffffffffffffffffffffffff1603611c20576040517f08c379a0000000000000000000000000000000000000000000000000000000008152600401611c1790612609565b60405180910390fd5b8060040160089054906101000a900460ff16158015611c4e57508060040160099054906101000a900460ff16155b611c8d576040517f08c379a0000000000000000000000000000000000000000000000000000000008152600401611c8490612e6b565b60405180910390fd5b806004015f9054906101000a900467ffffffffffffffff1667ffffffffffffffff16421115611cf1576040517f08c379a0000000000000000000000000000000000000000000000000000000008152600401611ce890612ed3565b60405180910390fd5b919050565b60018081905550565b80471015611d465747816040517fcf479181000000000000000000000000000000000000000000000000000000008152600401611d3d929190612ef1565b60405180910390fd5b5f5f8373ffffffffffffffffffffffffffffffffffffffff1683604051611d6c90612f45565b5f6040518083038185875af1925050503d805f8114611da6576040519150601f19603f3d011682016040523d82523d5f602084013e611dab565b606091505b509150915081611dbf57611dbe81611e8d565b5b50505050565b5f5f5f9054906101000a900473ffffffffffffffffffffffffffffffffffffffff169050815f5f6101000a81548173ffffffffffffffffffffffffffffffffffffffff021916908373ffffffffffffffffffffffffffffffffffffffff1602179055508173ffffffffffffffffffffffffffffffffffffffff168173ffffffffffffffffffffffffffffffffffffffff167f8be0079c531659141344cd1fd0a4f28419497f9722a3daafe3b4186f6b6457e060405160405180910390a35050565b5f33905090565b5f81511115611e9e57805160208201fd5b6040517fd6bda27500000000000000000000000000000000000000000000000000000000815260040160405180910390fd5b5f82825260208201905092915050565b7f47424d3a2064697265637420455448206e6f7420616c6c6f77656400000000005f82015250565b5f611f14601b83611ed0565b9150611f1f82611ee0565b602082019050919050565b5f6020820190508181035f830152611f4181611f08565b9050919050565b5f5ffd5b5f61ffff82169050919050565b611f6281611f4c565b8114611f6c575f5ffd5b50565b5f81359050611f7d81611f59565b92915050565b5f60208284031215611f9857611f97611f48565b5b5f611fa584828501611f6f565b91505092915050565b5f819050919050565b611fc081611fae565b8114611fca575f5ffd5b50565b5f81359050611fdb81611fb7565b92915050565b5f5f60408385031215611ff757611ff6611f48565b5b5f61200485828601611fcd565b925050602061201585828601611fcd565b9150509250929050565b5f6020828403121561203457612033611f48565b5b5f61204184828501611fcd565b91505092915050565b5f73ffffffffffffffffffffffffffffffffffffffff82169050919050565b5f6120738261204a565b9050919050565b61208381612069565b811461208d575f5ffd5b50565b5f8135905061209e8161207a565b92915050565b5f602082840312156120b9576120b8611f48565b5b5f6120c684828501612090565b91505092915050565b5f81519050919050565b5f82825260208201905092915050565b5f819050602082019050919050565b61210181611fae565b82525050565b5f61211283836120f8565b60208301905092915050565b5f602082019050919050565b5f612134826120cf565b61213e81856120d9565b9350612149836120e9565b805f5b838110156121795781516121608882612107565b975061216b8361211e565b92505060018101905061214c565b5085935050505092915050565b5f6020820190508181035f83015261219e818461212a565b905092915050565b5f63ffffffff82169050919050565b6121be816121a6565b81146121c8575f5ffd5b50565b5f813590506121d9816121b5565b92915050565b5f5f604083850312156121f5576121f4611f48565b5b5f61220285828601612090565b9250506020612213858286016121cb565b9150509250929050565b61222681611fae565b82525050565b5f60208201905061223f5f83018461221d565b92915050565b61224e816121a6565b82525050565b5f6020820190506122675f830184612245565b92915050565b61227681612069565b82525050565b5f60208201905061228f5f83018461226d565b92915050565b5f67ffffffffffffffff82169050919050565b6122b181612295565b82525050565b5f8115159050919050565b6122cb816122b7565b82525050565b5f610100820190506122e55f83018b61226d565b6122f2602083018a61226d565b6122ff604083018961226d565b61230c606083018861221d565b61231960808301876122a8565b61232660a08301866122c2565b61233360c08301856122c2565b61234060e083018461221d565b9998505050505050505050565b61235681611f4c565b82525050565b5f60208201905061236f5f83018461234d565b92915050565b5f5f6040838503121561238b5761238a611f48565b5b5f61239885828601611fcd565b92505060206123a985828601612090565b9150509250929050565b5f602082840312156123c8576123c7611f48565b5b5f6123d5848285016121cb565b91505092915050565b7f47424d3a206261642062707300000000000000000000000000000000000000005f82015250565b5f612412600c83611ed0565b915061241d826123de565b602082019050919050565b5f6020820190508181035f83015261243f81612406565b9050919050565b5f6040820190506124595f83018561234d565b612466602083018461234d565b9392505050565b7f47424d3a207a65726f20616d6f756e74000000000000000000000000000000005f82015250565b5f6124a1601083611ed0565b91506124ac8261246d565b602082019050919050565b5f6020820190508181035f8301526124ce81612495565b9050919050565b5f6060820190506124e85f83018661226d565b6124f5602083018561226d565b612502604083018461221d565b949350505050565b612513816122b7565b811461251d575f5ffd5b50565b5f8151905061252e8161250a565b92915050565b5f6020828403121561254957612548611f48565b5b5f61255684828501612520565b91505092915050565b7f4e487b71000000000000000000000000000000000000000000000000000000005f52601160045260245ffd5b5f61259682611fae565b91506125a183611fae565b92508282019050808211156125b9576125b861255f565b5b92915050565b7f47424d3a206e6f2070726f706f73616c000000000000000000000000000000005f82015250565b5f6125f3601083611ed0565b91506125fe826125bf565b602082019050919050565b5f6020820190508181035f830152612620816125e7565b9050919050565b7f47424d3a20616c72656164792066696e616c697a6564000000000000000000005f82015250565b5f61265b601683611ed0565b915061266682612627565b602082019050919050565b5f6020820190508181035f8301526126888161264f565b9050919050565b7f47424d3a206f6e6c792070726f706f73657200000000000000000000000000005f82015250565b5f6126c3601283611ed0565b91506126ce8261268f565b602082019050919050565b5f6020820190508181035f8301526126f0816126b7565b9050919050565b7f47424d3a20626164207661756c740000000000000000000000000000000000005f82015250565b5f61272b600e83611ed0565b9150612736826126f7565b602082019050919050565b5f6020820190508181035f8301526127588161271f565b9050919050565b7f47424d3a20626164206475726174696f6e0000000000000000000000000000005f82015250565b5f612793601183611ed0565b915061279e8261275f565b602082019050919050565b5f6020820190508181035f8301526127c081612787565b9050919050565b7f47424d3a20616c726561647920736f6c640000000000000000000000000000005f82015250565b5f6127fb601183611ed0565b9150612806826127c7565b602082019050919050565b5f6020820190508181035f830152612828816127ef565b9050919050565b5f8151905061283d81611fb7565b92915050565b5f6020828403121561285857612857611f48565b5b5f6128658482850161282f565b91505092915050565b7f47424d3a207072696365206e6f742073657400000000000000000000000000005f82015250565b5f6128a2601283611ed0565b91506128ad8261286e565b602082019050919050565b5f6020820190508181035f8301526128cf81612896565b9050919050565b7f47424d3a2077726f6e67204554482076616c75650000000000000000000000005f82015250565b5f61290a601483611ed0565b9150612915826128d6565b602082019050919050565b5f6020820190508181035f830152612937816128fe565b9050919050565b5f8151905061294c8161207a565b92915050565b5f60ff82169050919050565b61296781612952565b8114612971575f5ffd5b50565b5f815190506129828161295e565b92915050565b5f5f5f5f5f5f5f5f5f6101208a8c0312156129a6576129a5611f48565b5b5f6129b38c828d0161293e565b99505060206129c48c828d0161282f565b98505060406129d58c828d0161293e565b97505060606129e68c828d01612520565b96505060806129f78c828d01612520565b95505060a0612a088c828d0161282f565b94505060c0612a198c828d0161282f565b93505060e0612a2a8c828d0161282f565b925050610100612a3c8c828d01612974565b9150509295985092959850929598565b7f47424d3a206e6f20736861726520746f6b656e000000000000000000000000005f82015250565b5f612a80601383611ed0565b9150612a8b82612a4c565b602082019050919050565b5f6020820190508181035f830152612aad81612a74565b9050919050565b5f612abe82611fae565b91507fffffffffffffffffffffffffffffffffffffffffffffffffffffffffffffffff8203612af057612aef61255f565b5b600182019050919050565b5f606082019050612b0e5f83018661226d565b612b1b602083018561221d565b612b2860408301846122a8565b949350505050565b7f47424d3a20696e73756666696369656e74206c6f636b656400000000000000005f82015250565b5f612b64601883611ed0565b9150612b6f82612b30565b602082019050919050565b5f6020820190508181035f830152612b9181612b58565b9050919050565b5f612ba282611fae565b9150612bad83611fae565b9250828203905081811115612bc557612bc461255f565b5b92915050565b5f604082019050612bde5f83018561226d565b612beb602083018461221d565b9392505050565b7f47424d3a206f7574206f662072616e67650000000000000000000000000000005f82015250565b5f612c26601183611ed0565b9150612c3182612bf2565b602082019050919050565b5f6020820190508181035f830152612c5381612c1a565b9050919050565b5f604082019050612c6d5f830185612245565b612c7a6020830184612245565b9392505050565b7f47424d3a2062616420737570706c7900000000000000000000000000000000005f82015250565b5f612cb5600f83611ed0565b9150612cc082612c81565b602082019050919050565b5f6020820190508181035f830152612ce281612ca9565b9050919050565b5f612cf382611fae565b9150612cfe83611fae565b9250828202612d0c81611fae565b91508282048414831517612d2357612d2261255f565b5b5092915050565b7f47424d3a2071756f72756d206e6f7420726561636865640000000000000000005f82015250565b5f612d5e601783611ed0565b9150612d6982612d2a565b602082019050919050565b5f6020820190508181035f830152612d8b81612d52565b9050919050565b7f47424d3a207072696365206368616e67656400000000000000000000000000005f82015250565b5f612dc6601283611ed0565b9150612dd182612d92565b602082019050919050565b5f6020820190508181035f830152612df381612dba565b9050919050565b5f604082019050612e0d5f83018561221d565b612e1a602083018461226d565b9392505050565b7f47424d3a2066696e616c697a65640000000000000000000000000000000000005f82015250565b5f612e55600e83611ed0565b9150612e6082612e21565b602082019050919050565b5f6020820190508181035f830152612e8281612e49565b9050919050565b7f47424d3a206578706972656400000000000000000000000000000000000000005f82015250565b5f612ebd600c83611ed0565b9150612ec882612e89565b602082019050919050565b5f6020820190508181035f830152612eea81612eb1565b9050919050565b5f604082019050612f045f83018561221d565b612f11602083018461221d565b9392505050565b5f81905092915050565b50565b5f612f305f83612f18565b9150612f3b82612f22565b5f82019050919050565b5f612f4f82612f25565b915081905091905056fea2646970667358221220d47ecfea629e25eeb5fbddd0001d00d138d0e4a9ca904c30cd3bf8aaf7c4e7af64736f6c634300081e0033",
			"opcodes": "PUSH1 0x80 PUSH1 0x40 MSTORE PUSH2 0x13EC PUSH1 0x2 PUSH0 PUSH2 0x100 EXP DUP2 SLOAD DUP2 PUSH2 0xFFFF MUL NOT AND SWAP1 DUP4 PUSH2 0xFFFF AND MUL OR SWAP1 SSTORE POP PUSH3 0x127500 PUSH1 0x2 DUP1 PUSH2 0x100 EXP DUP2 SLOAD DUP2 PUSH4 0xFFFFFFFF MUL NOT AND SWAP1 DUP4 PUSH4 0xFFFFFFFF AND MUL OR SWAP1 SSTORE POP CALLVALUE DUP1 ISZERO PUSH2 0x50 JUMPI PUSH0 PUSH0 REVERT JUMPDEST POP PUSH1 0x40 MLOAD PUSH2 0x320E CODESIZE SUB DUP1 PUSH2 0x320E DUP4 CODECOPY DUP2 DUP2 ADD PUSH1 0x40 MSTORE DUP2 ADD SWAP1 PUSH2 0x72 SWAP2 SWAP1 PUSH2 0x21F JUMP JUMPDEST DUP1 PUSH0 PUSH20 0xFFFFFFFFFFFFFFFFFFFFFFFFFFFFFFFFFFFFFFFF AND DUP2 PUSH20 0xFFFFFFFFFFFFFFFFFFFFFFFFFFFFFFFFFFFFFFFF AND SUB PUSH2 0xE3 JUMPI PUSH0 PUSH1 0x40 MLOAD PUSH32 0x1E4FBDF700000000000000000000000000000000000000000000000000000000 DUP2 MSTORE PUSH1 0x4 ADD PUSH2 0xDA SWAP2 SWAP1 PUSH2 0x259 JUMP JUMPDEST PUSH1 0x40 MLOAD DUP1 SWAP2 SUB SWAP1 REVERT JUMPDEST PUSH2 0xF2 DUP2 PUSH2 0x100 PUSH1 0x20 SHL PUSH1 0x20 SHR JUMP JUMPDEST POP PUSH1 0x1 DUP1 DUP2 SWAP1 SSTORE POP POP PUSH2 0x272 JUMP JUMPDEST PUSH0 PUSH0 PUSH0 SWAP1 SLOAD SWAP1 PUSH2 0x100 EXP SWAP1 DIV PUSH20 0xFFFFFFFFFFFFFFFFFFFFFFFFFFFFFFFFFFFFFFFF AND SWAP1 POP DUP2 PUSH0 PUSH0 PUSH2 0x100 EXP DUP2 SLOAD DUP2 PUSH20 0xFFFFFFFFFFFFFFFFFFFFFFFFFFFFFFFFFFFFFFFF MUL NOT AND SWAP1 DUP4 PUSH20 0xFFFFFFFFFFFFFFFFFFFFFFFFFFFFFFFFFFFFFFFF AND MUL OR SWAP1 SSTORE POP DUP2 PUSH20 0xFFFFFFFFFFFFFFFFFFFFFFFFFFFFFFFFFFFFFFFF AND DUP2 PUSH20 0xFFFFFFFFFFFFFFFFFFFFFFFFFFFFFFFFFFFFFFFF AND PUSH32 0x8BE0079C531659141344CD1FD0A4F28419497F9722A3DAAFE3B4186F6B6457E0 PUSH1 0x40 MLOAD PUSH1 0x40 MLOAD DUP1 SWAP2 SUB SWAP1 LOG3 POP POP JUMP JUMPDEST PUSH0 PUSH0 REVERT JUMPDEST PUSH0 PUSH20 0xFFFFFFFFFFFFFFFFFFFFFFFFFFFFFFFFFFFFFFFF DUP3 AND SWAP1 POP SWAP2 SWAP1 POP JUMP JUMPDEST PUSH0 PUSH2 0x1EE DUP3 PUSH2 0x1C5 JUMP JUMPDEST SWAP1 POP SWAP2 SWAP1 POP JUMP JUMPDEST PUSH2 0x1FE DUP2 PUSH2 0x1E4 JUMP JUMPDEST DUP2 EQ PUSH2 0x208 JUMPI PUSH0 PUSH0 REVERT JUMPDEST POP JUMP JUMPDEST PUSH0 DUP2 MLOAD SWAP1 POP PUSH2 0x219 DUP2 PUSH2 0x1F5 JUMP JUMPDEST SWAP3 SWAP2 POP POP JUMP JUMPDEST PUSH0 PUSH1 0x20 DUP3 DUP5 SUB SLT ISZERO PUSH2 0x234 JUMPI PUSH2 0x233 PUSH2 0x1C1 JUMP JUMPDEST JUMPDEST PUSH0 PUSH2 0x241 DUP5 DUP3 DUP6 ADD PUSH2 0x20B JUMP JUMPDEST SWAP2 POP POP SWAP3 SWAP2 POP POP JUMP JUMPDEST PUSH2 0x253 DUP2 PUSH2 0x1E4 JUMP JUMPDEST DUP3 MSTORE POP POP JUMP JUMPDEST PUSH0 PUSH1 0x20 DUP3 ADD SWAP1 POP PUSH2 0x26C PUSH0 DUP4 ADD DUP5 PUSH2 0x24A JUMP JUMPDEST SWAP3 SWAP2 POP POP JUMP JUMPDEST PUSH2 0x2F8F DUP1 PUSH2 0x27F PUSH0 CODECOPY PUSH0 RETURN INVALID PUSH1 0x80 PUSH1 0x40 MSTORE PUSH1 0x4 CALLDATASIZE LT PUSH2 0xEB JUMPI PUSH0 CALLDATALOAD PUSH1 0xE0 SHR DUP1 PUSH4 0x715018A6 GT PUSH2 0x89 JUMPI DUP1 PUSH4 0xE03D7F55 GT PUSH2 0x58 JUMPI DUP1 PUSH4 0xE03D7F55 EQ PUSH2 0x312 JUMPI DUP1 PUSH4 0xEF921826 EQ PUSH2 0x34E JUMPI DUP1 PUSH4 0xF2FDE38B EQ PUSH2 0x376 JUMPI DUP1 PUSH4 0xFE0D94C1 EQ PUSH2 0x39E JUMPI PUSH2 0x12B JUMP JUMPDEST DUP1 PUSH4 0x715018A6 EQ PUSH2 0x265 JUMPI DUP1 PUSH4 0x8DA5CB5B EQ PUSH2 0x27B JUMPI DUP1 PUSH4 0xC7F758A8 EQ PUSH2 0x2A5 JUMPI DUP1 PUSH4 0xCD2DDD0C EQ PUSH2 0x2E8 JUMPI PUSH2 0x12B JUMP JUMPDEST DUP1 PUSH4 0x41234BDF GT PUSH2 0xC5 JUMPI DUP1 PUSH4 0x41234BDF EQ PUSH2 0x1A7 JUMPI DUP1 PUSH4 0x49705BBB EQ PUSH2 0x1E3 JUMPI DUP1 PUSH4 0x5BFADB24 EQ PUSH2 0x213 JUMPI DUP1 PUSH4 0x6DB5C8FD EQ PUSH2 0x23B JUMPI PUSH2 0x12B JUMP JUMPDEST DUP1 PUSH4 0x527AAB6 EQ PUSH2 0x12F JUMPI DUP1 PUSH4 0x1338736F EQ PUSH2 0x157 JUMPI DUP1 PUSH4 0x40E58EE5 EQ PUSH2 0x17F JUMPI PUSH2 0x12B JUMP JUMPDEST CALLDATASIZE PUSH2 0x12B JUMPI PUSH1 0x40 MLOAD PUSH32 0x8C379A000000000000000000000000000000000000000000000000000000000 DUP2 MSTORE PUSH1 0x4 ADD PUSH2 0x122 SWAP1 PUSH2 0x1F2A JUMP JUMPDEST PUSH1 0x40 MLOAD DUP1 SWAP2 SUB SWAP1 REVERT JUMPDEST PUSH0 PUSH0 REVERT JUMPDEST CALLVALUE DUP1 ISZERO PUSH2 0x13A JUMPI PUSH0 PUSH0 REVERT JUMPDEST POP PUSH2 0x155 PUSH1 0x4 DUP1 CALLDATASIZE SUB DUP2 ADD SWAP1 PUSH2 0x150 SWAP2 SWAP1 PUSH2 0x1F83 JUMP JUMPDEST PUSH2 0x3C6 JUMP JUMPDEST STOP JUMPDEST CALLVALUE DUP1 ISZERO PUSH2 0x162 JUMPI PUSH0 PUSH0 REVERT JUMPDEST POP PUSH2 0x17D PUSH1 0x4 DUP1 CALLDATASIZE SUB DUP2 ADD SWAP1 PUSH2 0x178 SWAP2 SWAP1 PUSH2 0x1FE1 JUMP JUMPDEST PUSH2 0x492 JUMP JUMPDEST STOP JUMPDEST CALLVALUE DUP1 ISZERO PUSH2 0x18A JUMPI PUSH0 PUSH0 REVERT JUMPDEST POP PUSH2 0x1A5 PUSH1 0x4 DUP1 CALLDATASIZE SUB DUP2 ADD SWAP1 PUSH2 0x1A0 SWAP2 SWAP1 PUSH2 0x201F JUMP JUMPDEST PUSH2 0x659 JUMP JUMPDEST STOP JUMPDEST CALLVALUE DUP1 ISZERO PUSH2 0x1B2 JUMPI PUSH0 PUSH0 REVERT JUMPDEST POP PUSH2 0x1CD PUSH1 0x4 DUP1 CALLDATASIZE SUB DUP2 ADD SWAP1 PUSH2 0x1C8 SWAP2 SWAP1 PUSH2 0x20A4 JUMP JUMPDEST PUSH2 0x91C JUMP JUMPDEST PUSH1 0x40 MLOAD PUSH2 0x1DA SWAP2 SWAP1 PUSH2 0x2186 JUMP JUMPDEST PUSH1 0x40 MLOAD DUP1 SWAP2 SUB SWAP1 RETURN JUMPDEST PUSH2 0x1FD PUSH1 0x4 DUP1 CALLDATASIZE SUB DUP2 ADD SWAP1 PUSH2 0x1F8 SWAP2 SWAP1 PUSH2 0x21DF JUMP JUMPDEST PUSH2 0x9AF JUMP JUMPDEST PUSH1 0x40 MLOAD PUSH2 0x20A SWAP2 SWAP1 PUSH2 0x222C JUMP JUMPDEST PUSH1 0x40 MLOAD DUP1 SWAP2 SUB SWAP1 RETURN JUMPDEST CALLVALUE DUP1 ISZERO PUSH2 0x21E JUMPI PUSH0 PUSH0 REVERT JUMPDEST POP PUSH2 0x239 PUSH1 0x4 DUP1 CALLDATASIZE SUB DUP2 ADD SWAP1 PUSH2 0x234 SWAP2 SWAP1 PUSH2 0x1FE1 JUMP JUMPDEST PUSH2 0xFB4 JUMP JUMPDEST STOP JUMPDEST CALLVALUE DUP1 ISZERO PUSH2 0x246 JUMPI PUSH0 PUSH0 REVERT JUMPDEST POP PUSH2 0x24F PUSH2 0x12A7 JUMP JUMPDEST PUSH1 0x40 MLOAD PUSH2 0x25C SWAP2 SWAP1 PUSH2 0x2254 JUMP JUMPDEST PUSH1 0x40 MLOAD DUP1 SWAP2 SUB SWAP1 RETURN JUMPDEST CALLVALUE DUP1 ISZERO PUSH2 0x270 JUMPI PUSH0 PUSH0 REVERT JUMPDEST POP PUSH2 0x279 PUSH2 0x12BB JUMP JUMPDEST STOP JUMPDEST CALLVALUE DUP1 ISZERO PUSH2 0x286 JUMPI PUSH0 PUSH0 REVERT JUMPDEST POP PUSH2 0x28F PUSH2 0x12CE JUMP JUMPDEST PUSH1 0x40 MLOAD PUSH2 0x29C SWAP2 SWAP1 PUSH2 0x227C JUMP JUMPDEST PUSH1 0x40 MLOAD DUP1 SWAP2 SUB SWAP1 RETURN JUMPDEST CALLVALUE DUP1 ISZERO PUSH2 0x2B0 JUMPI PUSH0 PUSH0 REVERT JUMPDEST POP PUSH2 0x2CB PUSH1 0x4 DUP1 CALLDATASIZE SUB DUP2 ADD SWAP1 PUSH2 0x2C6 SWAP2 SWAP1 PUSH2 0x201F JUMP JUMPDEST PUSH2 0x12F5 JUMP JUMPDEST PUSH1 0x40 MLOAD PUSH2 0x2DF SWAP9 SWAP8 SWAP7 SWAP6 SWAP5 SWAP4 SWAP3 SWAP2 SWAP1 PUSH2 0x22D1 JUMP JUMPDEST PUSH1 0x40 MLOAD DUP1 SWAP2 SUB SWAP1 RETURN JUMPDEST CALLVALUE DUP1 ISZERO PUSH2 0x2F3 JUMPI PUSH0 PUSH0 REVERT JUMPDEST POP PUSH2 0x2FC PUSH2 0x146E JUMP JUMPDEST PUSH1 0x40 MLOAD PUSH2 0x309 SWAP2 SWAP1 PUSH2 0x235C JUMP JUMPDEST PUSH1 0x40 MLOAD DUP1 SWAP2 SUB SWAP1 RETURN JUMPDEST CALLVALUE DUP1 ISZERO PUSH2 0x31D JUMPI PUSH0 PUSH0 REVERT JUMPDEST POP PUSH2 0x338 PUSH1 0x4 DUP1 CALLDATASIZE SUB DUP2 ADD SWAP1 PUSH2 0x333 SWAP2 SWAP1 PUSH2 0x2375 JUMP JUMPDEST PUSH2 0x1481 JUMP JUMPDEST PUSH1 0x40 MLOAD PUSH2 0x345 SWAP2 SWAP1 PUSH2 0x222C JUMP JUMPDEST PUSH1 0x40 MLOAD DUP1 SWAP2 SUB SWAP1 RETURN JUMPDEST CALLVALUE DUP1 ISZERO PUSH2 0x359 JUMPI PUSH0 PUSH0 REVERT JUMPDEST POP PUSH2 0x374 PUSH1 0x4 DUP1 CALLDATASIZE SUB DUP2 ADD SWAP1 PUSH2 0x36F SWAP2 SWAP1 PUSH2 0x23B3 JUMP JUMPDEST PUSH2 0x156F JUMP JUMPDEST STOP JUMPDEST CALLVALUE DUP1 ISZERO PUSH2 0x381 JUMPI PUSH0 PUSH0 REVERT JUMPDEST POP PUSH2 0x39C PUSH1 0x4 DUP1 CALLDATASIZE SUB DUP2 ADD SWAP1 PUSH2 0x397 SWAP2 SWAP1 PUSH2 0x20A4 JUMP JUMPDEST PUSH2 0x1648 JUMP JUMPDEST STOP JUMPDEST CALLVALUE DUP1 ISZERO PUSH2 0x3A9 JUMPI PUSH0 PUSH0 REVERT JUMPDEST POP PUSH2 0x3C4 PUSH1 0x4 DUP1 CALLDATASIZE SUB DUP2 ADD SWAP1 PUSH2 0x3BF SWAP2 SWAP1 PUSH2 0x201F JUMP JUMPDEST PUSH2 0x16CC JUMP JUMPDEST STOP JUMPDEST PUSH2 0x3CE PUSH2 0x1AAF JUMP JUMPDEST PUSH0 DUP2 PUSH2 0xFFFF AND GT DUP1 ISZERO PUSH2 0x3E7 JUMPI POP PUSH2 0x2710 DUP2 PUSH2 0xFFFF AND GT ISZERO JUMPDEST PUSH2 0x426 JUMPI PUSH1 0x40 MLOAD PUSH32 0x8C379A000000000000000000000000000000000000000000000000000000000 DUP2 MSTORE PUSH1 0x4 ADD PUSH2 0x41D SWAP1 PUSH2 0x2428 JUMP JUMPDEST PUSH1 0x40 MLOAD DUP1 SWAP2 SUB SWAP1 REVERT JUMPDEST PUSH0 PUSH1 0x2 PUSH0 SWAP1 SLOAD SWAP1 PUSH2 0x100 EXP SWAP1 DIV PUSH2 0xFFFF AND SWAP1 POP DUP2 PUSH1 0x2 PUSH0 PUSH2 0x100 EXP DUP2 SLOAD DUP2 PUSH2 0xFFFF MUL NOT AND SWAP1 DUP4 PUSH2 0xFFFF AND MUL OR SWAP1 SSTORE POP PUSH32 0x45D2D241726DE5DF0302442CA7FAD06A2BFD91D02B509EC1A7F0BEE52714363A DUP2 DUP4 PUSH1 0x40 MLOAD PUSH2 0x486 SWAP3 SWAP2 SWAP1 PUSH2 0x2446 JUMP JUMPDEST PUSH1 0x40 MLOAD DUP1 SWAP2 SUB SWAP1 LOG1 POP POP JUMP JUMPDEST PUSH2 0x49A PUSH2 0x1B36 JUMP JUMPDEST PUSH0 DUP2 GT PUSH2 0x4DC JUMPI PUSH1 0x40 MLOAD PUSH32 0x8C379A000000000000000000000000000000000000000000000000000000000 DUP2 MSTORE PUSH1 0x4 ADD PUSH2 0x4D3 SWAP1 PUSH2 0x24B7 JUMP JUMPDEST PUSH1 0x40 MLOAD DUP1 SWAP2 SUB SWAP1 REVERT JUMPDEST PUSH0 PUSH2 0x4E6 DUP4 PUSH2 0x1B7C JUMP JUMPDEST SWAP1 POP PUSH0 DUP2 PUSH1 0x2 ADD PUSH0 SWAP1 SLOAD SWAP1 PUSH2 0x100 EXP SWAP1 DIV PUSH20 0xFFFFFFFFFFFFFFFFFFFFFFFFFFFFFFFFFFFFFFFF AND SWAP1 POP DUP1 PUSH20 0xFFFFFFFFFFFFFFFFFFFFFFFFFFFFFFFFFFFFFFFF AND PUSH4 0x23B872DD CALLER ADDRESS DUP7 PUSH1 0x40 MLOAD DUP5 PUSH4 0xFFFFFFFF AND PUSH1 0xE0 SHL DUP2 MSTORE PUSH1 0x4 ADD PUSH2 0x54C SWAP4 SWAP3 SWAP2 SWAP1 PUSH2 0x24D5 JUMP JUMPDEST PUSH1 0x20 PUSH1 0x40 MLOAD DUP1 DUP4 SUB DUP2 PUSH0 DUP8 GAS CALL ISZERO DUP1 ISZERO PUSH2 0x568 JUMPI RETURNDATASIZE PUSH0 PUSH0 RETURNDATACOPY RETURNDATASIZE PUSH0 REVERT JUMPDEST POP POP POP POP PUSH1 0x40 MLOAD RETURNDATASIZE PUSH1 0x1F NOT PUSH1 0x1F DUP3 ADD AND DUP3 ADD DUP1 PUSH1 0x40 MSTORE POP DUP2 ADD SWAP1 PUSH2 0x58C SWAP2 SWAP1 PUSH2 0x2534 JUMP JUMPDEST POP DUP3 DUP3 PUSH1 0x6 ADD PUSH0 CALLER PUSH20 0xFFFFFFFFFFFFFFFFFFFFFFFFFFFFFFFFFFFFFFFF AND PUSH20 0xFFFFFFFFFFFFFFFFFFFFFFFFFFFFFFFFFFFFFFFF AND DUP2 MSTORE PUSH1 0x20 ADD SWAP1 DUP2 MSTORE PUSH1 0x20 ADD PUSH0 KECCAK256 PUSH0 DUP3 DUP3 SLOAD PUSH2 0x5DB SWAP2 SWAP1 PUSH2 0x258C JUMP JUMPDEST SWAP3 POP POP DUP2 SWAP1 SSTORE POP DUP3 DUP3 PUSH1 0x5 ADD PUSH0 DUP3 DUP3 SLOAD PUSH2 0x5F5 SWAP2 SWAP1 PUSH2 0x258C JUMP JUMPDEST SWAP3 POP POP DUP2 SWAP1 SSTORE POP CALLER PUSH20 0xFFFFFFFFFFFFFFFFFFFFFFFFFFFFFFFFFFFFFFFF AND DUP5 PUSH32 0x55016B6CC60C3D15B7B1EBD0AB766C07B3082C98A5B4D1D7FF012A97652A4B1D DUP6 PUSH1 0x40 MLOAD PUSH2 0x643 SWAP2 SWAP1 PUSH2 0x222C JUMP JUMPDEST PUSH1 0x40 MLOAD DUP1 SWAP2 SUB SWAP1 LOG3 POP POP PUSH2 0x655 PUSH2 0x1CF6 JUMP JUMPDEST POP POP JUMP JUMPDEST PUSH2 0x661 PUSH2 0x1B36 JUMP JUMPDEST PUSH0 PUSH1 0x4 PUSH0 DUP4 DUP2 MSTORE PUSH1 0x20 ADD SWAP1 DUP2 MSTORE PUSH1 0x20 ADD PUSH0 KECCAK256 SWAP1 POP PUSH0 PUSH20 0xFFFFFFFFFFFFFFFFFFFFFFFFFFFFFFFFFFFFFFFF AND DUP2 PUSH0 ADD PUSH0 SWAP1 SLOAD SWAP1 PUSH2 0x100 EXP SWAP1 DIV PUSH20 0xFFFFFFFFFFFFFFFFFFFFFFFFFFFFFFFFFFFFFFFF AND PUSH20 0xFFFFFFFFFFFFFFFFFFFFFFFFFFFFFFFFFFFFFFFF AND SUB PUSH2 0x705 JUMPI PUSH1 0x40 MLOAD PUSH32 0x8C379A000000000000000000000000000000000000000000000000000000000 DUP2 MSTORE PUSH1 0x4 ADD PUSH2 0x6FC SWAP1 PUSH2 0x2609 JUMP JUMPDEST PUSH1 0x40 MLOAD DUP1 SWAP2 SUB SWAP1 REVERT JUMPDEST DUP1 PUSH1 0x4 ADD PUSH1 0x8 SWAP1 SLOAD SWAP1 PUSH2 0x100 EXP SWAP1 DIV PUSH1 0xFF AND ISZERO DUP1 ISZERO PUSH2 0x733 JUMPI POP DUP1 PUSH1 0x4 ADD PUSH1 0x9 SWAP1 SLOAD SWAP1 PUSH2 0x100 EXP SWAP1 DIV PUSH1 0xFF AND ISZERO JUMPDEST PUSH2 0x772 JUMPI PUSH1 0x40 MLOAD PUSH32 0x8C379A000000000000000000000000000000000000000000000000000000000 DUP2 MSTORE PUSH1 0x4 ADD PUSH2 0x769 SWAP1 PUSH2 0x2671 JUMP JUMPDEST PUSH1 0x40 MLOAD DUP1 SWAP2 SUB SWAP1 REVERT JUMPDEST DUP1 PUSH1 0x1 ADD PUSH0 SWAP1 SLOAD SWAP1 PUSH2 0x100 EXP SWAP1 DIV PUSH20 0xFFFFFFFFFFFFFFFFFFFFFFFFFFFFFFFFFFFFFFFF AND PUSH20 0xFFFFFFFFFFFFFFFFFFFFFFFFFFFFFFFFFFFFFFFF AND CALLER PUSH20 0xFFFFFFFFFFFFFFFFFFFFFFFFFFFFFFFFFFFFFFFF AND EQ PUSH2 0x803 JUMPI PUSH1 0x40 MLOAD PUSH32 0x8C379A000000000000000000000000000000000000000000000000000000000 DUP2 MSTORE PUSH1 0x4 ADD PUSH2 0x7FA SWAP1 PUSH2 0x26D9 JUMP JUMPDEST PUSH1 0x40 MLOAD DUP1 SWAP2 SUB SWAP1 REVERT JUMPDEST PUSH1 0x1 DUP2 PUSH1 0x4 ADD PUSH1 0x9 PUSH2 0x100 EXP DUP2 SLOAD DUP2 PUSH1 0xFF MUL NOT AND SWAP1 DUP4 ISZERO ISZERO MUL OR SWAP1 SSTORE POP PUSH2 0x870 DUP2 PUSH1 0x3 ADD SLOAD DUP3 PUSH1 0x1 ADD PUSH0 SWAP1 SLOAD SWAP1 PUSH2 0x100 EXP SWAP1 DIV PUSH20 0xFFFFFFFFFFFFFFFFFFFFFFFFFFFFFFFFFFFFFFFF AND PUSH20 0xFFFFFFFFFFFFFFFFFFFFFFFFFFFFFFFFFFFFFFFF AND PUSH2 0x1CFF SWAP1 SWAP2 SWAP1 PUSH4 0xFFFFFFFF AND JUMP JUMPDEST DUP1 PUSH1 0x1 ADD PUSH0 SWAP1 SLOAD SWAP1 PUSH2 0x100 EXP SWAP1 DIV PUSH20 0xFFFFFFFFFFFFFFFFFFFFFFFFFFFFFFFFFFFFFFFF AND PUSH20 0xFFFFFFFFFFFFFFFFFFFFFFFFFFFFFFFFFFFFFFFF AND DUP2 PUSH0 ADD PUSH0 SWAP1 SLOAD SWAP1 PUSH2 0x100 EXP SWAP1 DIV PUSH20 0xFFFFFFFFFFFFFFFFFFFFFFFFFFFFFFFFFFFFFFFF AND PUSH20 0xFFFFFFFFFFFFFFFFFFFFFFFFFFFFFFFFFFFFFFFF AND DUP4 PUSH32 0x976DCC58165A4EBB2F9ECCCD1F534FCE6838F94BC2B9D0F757B30929E64D427D PUSH1 0x40 MLOAD PUSH1 0x40 MLOAD DUP1 SWAP2 SUB SWAP1 LOG4 POP PUSH2 0x919 PUSH2 0x1CF6 JUMP JUMPDEST POP JUMP JUMPDEST PUSH1 0x60 PUSH1 0x5 PUSH0 DUP4 PUSH20 0xFFFFFFFFFFFFFFFFFFFFFFFFFFFFFFFFFFFFFFFF AND PUSH20 0xFFFFFFFFFFFFFFFFFFFFFFFFFFFFFFFFFFFFFFFF AND DUP2 MSTORE PUSH1 0x20 ADD SWAP1 DUP2 MSTORE PUSH1 0x20 ADD PUSH0 KECCAK256 DUP1 SLOAD DUP1 PUSH1 0x20 MUL PUSH1 0x20 ADD PUSH1 0x40 MLOAD SWAP1 DUP2 ADD PUSH1 0x40 MSTORE DUP1 SWAP3 SWAP2 SWAP1 DUP2 DUP2 MSTORE PUSH1 0x20 ADD DUP3 DUP1 SLOAD DUP1 ISZERO PUSH2 0x9A3 JUMPI PUSH1 0x20 MUL DUP3 ADD SWAP2 SWAP1 PUSH0 MSTORE PUSH1 0x20 PUSH0 KECCAK256 SWAP1 JUMPDEST DUP2 SLOAD DUP2 MSTORE PUSH1 0x20 ADD SWAP1 PUSH1 0x1 ADD SWAP1 DUP1 DUP4 GT PUSH2 0x98F JUMPI JUMPDEST POP POP POP POP POP SWAP1 POP SWAP2 SWAP1 POP JUMP JUMPDEST PUSH0 PUSH2 0x9B8 PUSH2 0x1B36 JUMP JUMPDEST PUSH0 PUSH20 0xFFFFFFFFFFFFFFFFFFFFFFFFFFFFFFFFFFFFFFFF AND DUP4 PUSH20 0xFFFFFFFFFFFFFFFFFFFFFFFFFFFFFFFFFFFFFFFF AND SUB PUSH2 0xA26 JUMPI PUSH1 0x40 MLOAD PUSH32 0x8C379A000000000000000000000000000000000000000000000000000000000 DUP2 MSTORE PUSH1 0x4 ADD PUSH2 0xA1D SWAP1 PUSH2 0x2741 JUMP JUMPDEST PUSH1 0x40 MLOAD DUP1 SWAP2 SUB SWAP1 REVERT JUMPDEST PUSH0 DUP3 PUSH4 0xFFFFFFFF AND GT DUP1 ISZERO PUSH2 0xA57 JUMPI POP PUSH1 0x2 DUP1 SLOAD SWAP1 PUSH2 0x100 EXP SWAP1 DIV PUSH4 0xFFFFFFFF AND PUSH4 0xFFFFFFFF AND DUP3 PUSH4 0xFFFFFFFF AND GT ISZERO JUMPDEST PUSH2 0xA96 JUMPI PUSH1 0x40 MLOAD PUSH32 0x8C379A000000000000000000000000000000000000000000000000000000000 DUP2 MSTORE PUSH1 0x4 ADD PUSH2 0xA8D SWAP1 PUSH2 0x27A9 JUMP JUMPDEST PUSH1 0x40 MLOAD DUP1 SWAP2 SUB SWAP1 REVERT JUMPDEST PUSH0 DUP4 SWAP1 POP DUP1 PUSH20 0xFFFFFFFFFFFFFFFFFFFFFFFFFFFFFFFFFFFFFFFF AND PUSH4 0x2C7E7AF PUSH1 0x40 MLOAD DUP2 PUSH4 0xFFFFFFFF AND PUSH1 0xE0 SHL DUP2 MSTORE PUSH1 0x4 ADD PUSH1 0x20 PUSH1 0x40 MLOAD DUP1 DUP4 SUB DUP2 DUP7 GAS STATICCALL ISZERO DUP1 ISZERO PUSH2 0xAE3 JUMPI RETURNDATASIZE PUSH0 PUSH0 RETURNDATACOPY RETURNDATASIZE PUSH0 REVERT JUMPDEST POP POP POP POP PUSH1 0x40 MLOAD RETURNDATASIZE PUSH1 0x1F NOT PUSH1 0x1F DUP3 ADD AND DUP3 ADD DUP1 PUSH1 0x40 MSTORE POP DUP2 ADD SWAP1 PUSH2 0xB07 SWAP2 SWAP1 PUSH2 0x2534 JUMP JUMPDEST ISZERO PUSH2 0xB47 JUMPI PUSH1 0x40 MLOAD PUSH32 0x8C379A000000000000000000000000000000000000000000000000000000000 DUP2 MSTORE PUSH1 0x4 ADD PUSH2 0xB3E SWAP1 PUSH2 0x2811 JUMP JUMPDEST PUSH1 0x40 MLOAD DUP1 SWAP2 SUB SWAP1 REVERT JUMPDEST PUSH0 DUP2 PUSH20 0xFFFFFFFFFFFFFFFFFFFFFFFFFFFFFFFFFFFFFFFF AND PUSH4 0x38DFD97C PUSH1 0x40 MLOAD DUP2 PUSH4 0xFFFFFFFF AND PUSH1 0xE0 SHL DUP2 MSTORE PUSH1 0x4 ADD PUSH1 0x20 PUSH1 0x40 MLOAD DUP1 DUP4 SUB DUP2 DUP7 GAS STATICCALL ISZERO DUP1 ISZERO PUSH2 0xB91 JUMPI RETURNDATASIZE PUSH0 PUSH0 RETURNDATACOPY RETURNDATASIZE PUSH0 REVERT JUMPDEST POP POP POP POP PUSH1 0x40 MLOAD RETURNDATASIZE PUSH1 0x1F NOT PUSH1 0x1F DUP3 ADD AND DUP3 ADD DUP1 PUSH1 0x40 MSTORE POP DUP2 ADD SWAP1 PUSH2 0xBB5 SWAP2 SWAP1 PUSH2 0x2843 JUMP JUMPDEST GT PUSH2 0xBF5 JUMPI PUSH1 0x40 MLOAD PUSH32 0x8C379A000000000000000000000000000000000000000000000000000000000 DUP2 MSTORE PUSH1 0x4 ADD PUSH2 0xBEC SWAP1 PUSH2 0x28B8 JUMP JUMPDEST PUSH1 0x40 MLOAD DUP1 SWAP2 SUB SWAP1 REVERT JUMPDEST DUP1 PUSH20 0xFFFFFFFFFFFFFFFFFFFFFFFFFFFFFFFFFFFFFFFF AND PUSH4 0x38DFD97C PUSH1 0x40 MLOAD DUP2 PUSH4 0xFFFFFFFF AND PUSH1 0xE0 SHL DUP2 MSTORE PUSH1 0x4 ADD PUSH1 0x20 PUSH1 0x40 MLOAD DUP1 DUP4 SUB DUP2 DUP7 GAS STATICCALL ISZERO DUP1 ISZERO PUSH2 0xC3E JUMPI RETURNDATASIZE PUSH0 PUSH0 RETURNDATACOPY RETURNDATASIZE PUSH0 REVERT JUMPDEST POP POP POP POP PUSH1 0x40 MLOAD RETURNDATASIZE PUSH1 0x1F NOT PUSH1 0x1F DUP3 ADD AND DUP3 ADD DUP1 PUSH1 0x40 MSTORE POP DUP2 ADD SWAP1 PUSH2 0xC62 SWAP2 SWAP1 PUSH2 0x2843 JUMP JUMPDEST CALLVALUE EQ PUSH2 0xCA3 JUMPI PUSH1 0x40 MLOAD PUSH32 0x8C379A000000000000000000000000000000000000000000000000000000000 DUP2 MSTORE PUSH1 0x4 ADD PUSH2 0xC9A SWAP1 PUSH2 0x2920 JUMP JUMPDEST PUSH1 0x40 MLOAD DUP1 SWAP2 SUB SWAP1 REVERT JUMPDEST PUSH0 DUP2 PUSH20 0xFFFFFFFFFFFFFFFFFFFFFFFFFFFFFFFFFFFFFFFF AND PUSH4 0x501EC738 PUSH1 0x40 MLOAD DUP2 PUSH4 0xFFFFFFFF AND PUSH1 0xE0 SHL DUP2 MSTORE PUSH1 0x4 ADD PUSH2 0x120 PUSH1 0x40 MLOAD DUP1 DUP4 SUB DUP2 DUP7 GAS STATICCALL ISZERO DUP1 ISZERO PUSH2 0xCEE JUMPI RETURNDATASIZE PUSH0 PUSH0 RETURNDATACOPY RETURNDATASIZE PUSH0 REVERT JUMPDEST POP POP POP POP PUSH1 0x40 MLOAD RETURNDATASIZE PUSH1 0x1F NOT PUSH1 0x1F DUP3 ADD AND DUP3 ADD DUP1 PUSH1 0x40 MSTORE POP DUP2 ADD SWAP1 PUSH2 0xD12 SWAP2 SWAP1 PUSH2 0x2988 JUMP JUMPDEST POP POP POP POP POP POP SWAP3 POP POP POP PUSH0 PUSH20 0xFFFFFFFFFFFFFFFFFFFFFFFFFFFFFFFFFFFFFFFF AND DUP2 PUSH20 0xFFFFFFFFFFFFFFFFFFFFFFFFFFFFFFFFFFFFFFFF AND SUB PUSH2 0xD8A JUMPI PUSH1 0x40 MLOAD PUSH32 0x8C379A000000000000000000000000000000000000000000000000000000000 DUP2 MSTORE PUSH1 0x4 ADD PUSH2 0xD81 SWAP1 PUSH2 0x2A96 JUMP JUMPDEST PUSH1 0x40 MLOAD DUP1 SWAP2 SUB SWAP1 REVERT JUMPDEST PUSH1 0x3 PUSH0 DUP2 SLOAD PUSH2 0xD98 SWAP1 PUSH2 0x2AB4 JUMP JUMPDEST SWAP2 SWAP1 POP DUP2 SWAP1 SSTORE SWAP3 POP PUSH0 PUSH1 0x4 PUSH0 DUP6 DUP2 MSTORE PUSH1 0x20 ADD SWAP1 DUP2 MSTORE PUSH1 0x20 ADD PUSH0 KECCAK256 SWAP1 POP DUP6 DUP2 PUSH0 ADD PUSH0 PUSH2 0x100 EXP DUP2 SLOAD DUP2 PUSH20 0xFFFFFFFFFFFFFFFFFFFFFFFFFFFFFFFFFFFFFFFF MUL NOT AND SWAP1 DUP4 PUSH20 0xFFFFFFFFFFFFFFFFFFFFFFFFFFFFFFFFFFFFFFFF AND MUL OR SWAP1 SSTORE POP CALLER DUP2 PUSH1 0x1 ADD PUSH0 PUSH2 0x100 EXP DUP2 SLOAD DUP2 PUSH20 0xFFFFFFFFFFFFFFFFFFFFFFFFFFFFFFFFFFFFFFFF MUL NOT AND SWAP1 DUP4 PUSH20 0xFFFFFFFFFFFFFFFFFFFFFFFFFFFFFFFFFFFFFFFF AND MUL OR SWAP1 SSTORE POP DUP2 DUP2 PUSH1 0x2 ADD PUSH0 PUSH2 0x100 EXP DUP2 SLOAD DUP2 PUSH20 0xFFFFFFFFFFFFFFFFFFFFFFFFFFFFFFFFFFFFFFFF MUL NOT AND SWAP1 DUP4 PUSH20 0xFFFFFFFFFFFFFFFFFFFFFFFFFFFFFFFFFFFFFFFF AND MUL OR SWAP1 SSTORE POP CALLVALUE DUP2 PUSH1 0x3 ADD DUP2 SWAP1 SSTORE POP DUP5 PUSH4 0xFFFFFFFF AND TIMESTAMP PUSH2 0xE94 SWAP2 SWAP1 PUSH2 0x258C JUMP JUMPDEST DUP2 PUSH1 0x4 ADD PUSH0 PUSH2 0x100 EXP DUP2 SLOAD DUP2 PUSH8 0xFFFFFFFFFFFFFFFF MUL NOT AND SWAP1 DUP4 PUSH8 0xFFFFFFFFFFFFFFFF AND MUL OR SWAP1 SSTORE POP PUSH1 0x5 PUSH0 DUP8 PUSH20 0xFFFFFFFFFFFFFFFFFFFFFFFFFFFFFFFFFFFFFFFF AND PUSH20 0xFFFFFFFFFFFFFFFFFFFFFFFFFFFFFFFFFFFFFFFF AND DUP2 MSTORE PUSH1 0x20 ADD SWAP1 DUP2 MSTORE PUSH1 0x20 ADD PUSH0 KECCAK256 DUP5 SWAP1 DUP1 PUSH1 0x1 DUP2 SLOAD ADD DUP1 DUP3 SSTORE DUP1 SWAP2 POP POP PUSH1 0x1 SWAP1 SUB SWAP1 PUSH0 MSTORE PUSH1 0x20 PUSH0 KECCAK256 ADD PUSH0 SWAP1 SWAP2 SWAP1 SWAP2 SWAP1 SWAP2 POP SSTORE CALLER PUSH20 0xFFFFFFFFFFFFFFFFFFFFFFFFFFFFFFFFFFFFFFFF AND DUP7 PUSH20 0xFFFFFFFFFFFFFFFFFFFFFFFFFFFFFFFFFFFFFFFF AND DUP6 PUSH32 0xE6A02EE0702AFD40837D3E4096A05F18BE862FA93F16775219BBF7C93AF55EFC DUP6 DUP6 PUSH1 0x3 ADD SLOAD DUP7 PUSH1 0x4 ADD PUSH0 SWAP1 SLOAD SWAP1 PUSH2 0x100 EXP SWAP1 DIV PUSH8 0xFFFFFFFFFFFFFFFF AND PUSH1 0x40 MLOAD PUSH2 0xF9B SWAP4 SWAP3 SWAP2 SWAP1 PUSH2 0x2AFB JUMP JUMPDEST PUSH1 0x40 MLOAD DUP1 SWAP2 SUB SWAP1 LOG4 POP POP POP PUSH2 0xFAE PUSH2 0x1CF6 JUMP JUMPDEST SWAP3 SWAP2 POP POP JUMP JUMPDEST PUSH2 0xFBC PUSH2 0x1B36 JUMP JUMPDEST PUSH0 DUP2 GT PUSH2 0xFFE JUMPI PUSH1 0x40 MLOAD PUSH32 0x8C379A000000000000000000000000000000000000000000000000000000000 DUP2 MSTORE PUSH1 0x4 ADD PUSH2 0xFF5 SWAP1 PUSH2 0x24B7 JUMP JUMPDEST PUSH1 0x40 MLOAD DUP1 SWAP2 SUB SWAP1 REVERT JUMPDEST PUSH0 PUSH1 0x4 PUSH0 DUP5 DUP2 MSTORE PUSH1 0x20 ADD SWAP1 DUP2 MSTORE PUSH1 0x20 ADD PUSH0 KECCAK256 SWAP1 POP PUSH0 PUSH20 0xFFFFFFFFFFFFFFFFFFFFFFFFFFFFFFFFFFFFFFFF AND DUP2 PUSH0 ADD PUSH0 SWAP1 SLOAD SWAP1 PUSH2 0x100 EXP SWAP1 DIV PUSH20 0xFFFFFFFFFFFFFFFFFFFFFFFFFFFFFFFFFFFFFFFF AND PUSH20 0xFFFFFFFFFFFFFFFFFFFFFFFFFFFFFFFFFFFFFFFF AND SUB PUSH2 0x10A2 JUMPI PUSH1 0x40 MLOAD PUSH32 0x8C379A000000000000000000000000000000000000000000000000000000000 DUP2 MSTORE PUSH1 0x4 ADD PUSH2 0x1099 SWAP1 PUSH2 0x2609 JUMP JUMPDEST PUSH1 0x40 MLOAD DUP1 SWAP2 SUB SWAP1 REVERT JUMPDEST PUSH0 DUP2 PUSH1 0x6 ADD PUSH0 CALLER PUSH20 0xFFFFFFFFFFFFFFFFFFFFFFFFFFFFFFFFFFFFFFFF AND PUSH20 0xFFFFFFFFFFFFFFFFFFFFFFFFFFFFFFFFFFFFFFFF AND DUP2 MSTORE PUSH1 0x20 ADD SWAP1 DUP2 MSTORE PUSH1 0x20 ADD PUSH0 KECCAK256 SLOAD SWAP1 POP DUP3 DUP2 LT ISZERO PUSH2 0x1128 JUMPI PUSH1 0x40 MLOAD PUSH32 0x8C379A000000000000000000000000000000000000000000000000000000000 DUP2 MSTORE PUSH1 0x4 ADD PUSH2 0x111F SWAP1 PUSH2 0x2B7A JUMP JUMPDEST PUSH1 0x40 MLOAD DUP1 SWAP2 SUB SWAP1 REVERT JUMPDEST DUP3 DUP2 PUSH2 0x1134 SWAP2 SWAP1 PUSH2 0x2B98 JUMP JUMPDEST DUP3 PUSH1 0x6 ADD PUSH0 CALLER PUSH20 0xFFFFFFFFFFFFFFFFFFFFFFFFFFFFFFFFFFFFFFFF AND PUSH20 0xFFFFFFFFFFFFFFFFFFFFFFFFFFFFFFFFFFFFFFFF AND DUP2 MSTORE PUSH1 0x20 ADD SWAP1 DUP2 MSTORE PUSH1 0x20 ADD PUSH0 KECCAK256 DUP2 SWAP1 SSTORE POP DUP3 DUP3 PUSH1 0x5 ADD SLOAD LT PUSH2 0x11A1 JUMPI DUP3 DUP3 PUSH1 0x5 ADD PUSH0 DUP3 DUP3 SLOAD PUSH2 0x1195 SWAP2 SWAP1 PUSH2 0x2B98 JUMP JUMPDEST SWAP3 POP POP DUP2 SWAP1 SSTORE POP PUSH2 0x11AB JUMP JUMPDEST PUSH0 DUP3 PUSH1 0x5 ADD DUP2 SWAP1 SSTORE POP JUMPDEST DUP2 PUSH1 0x2 ADD PUSH0 SWAP1 SLOAD SWAP1 PUSH2 0x100 EXP SWAP1 DIV PUSH20 0xFFFFFFFFFFFFFFFFFFFFFFFFFFFFFFFFFFFFFFFF AND PUSH20 0xFFFFFFFFFFFFFFFFFFFFFFFFFFFFFFFFFFFFFFFF AND PUSH4 0xA9059CBB CALLER DUP6 PUSH1 0x40 MLOAD DUP4 PUSH4 0xFFFFFFFF AND PUSH1 0xE0 SHL DUP2 MSTORE PUSH1 0x4 ADD PUSH2 0x1209 SWAP3 SWAP2 SWAP1 PUSH2 0x2BCB JUMP JUMPDEST PUSH1 0x20 PUSH1 0x40 MLOAD DUP1 DUP4 SUB DUP2 PUSH0 DUP8 GAS CALL ISZERO DUP1 ISZERO PUSH2 0x1225 JUMPI RETURNDATASIZE PUSH0 PUSH0 RETURNDATACOPY RETURNDATASIZE PUSH0 REVERT JUMPDEST POP POP POP POP PUSH1 0x40 MLOAD RETURNDATASIZE PUSH1 0x1F NOT PUSH1 0x1F DUP3 ADD AND DUP3 ADD DUP1 PUSH1 0x40 MSTORE POP DUP2 ADD SWAP1 PUSH2 0x1249 SWAP2 SWAP1 PUSH2 0x2534 JUMP JUMPDEST POP CALLER PUSH20 0xFFFFFFFFFFFFFFFFFFFFFFFFFFFFFFFFFFFFFFFF AND DUP5 PUSH32 0xF1C2201AB8D3AFE0AB6336204843B66BB25C5F27D6DE3490C9A463FD18D294A9 DUP6 PUSH1 0x40 MLOAD PUSH2 0x1291 SWAP2 SWAP1 PUSH2 0x222C JUMP JUMPDEST PUSH1 0x40 MLOAD DUP1 SWAP2 SUB SWAP1 LOG3 POP POP PUSH2 0x12A3 PUSH2 0x1CF6 JUMP JUMPDEST POP POP JUMP JUMPDEST PUSH1 0x2 DUP1 SLOAD SWAP1 PUSH2 0x100 EXP SWAP1 DIV PUSH4 0xFFFFFFFF AND DUP2 JUMP JUMPDEST PUSH2 0x12C3 PUSH2 0x1AAF JUMP JUMPDEST PUSH2 0x12CC PUSH0 PUSH2 0x1DC5 JUMP JUMPDEST JUMP JUMPDEST PUSH0 PUSH0 PUSH0 SWAP1 SLOAD SWAP1 PUSH2 0x100 EXP SWAP1 DIV PUSH20 0xFFFFFFFFFFFFFFFFFFFFFFFFFFFFFFFFFFFFFFFF AND SWAP1 POP SWAP1 JUMP JUMPDEST PUSH0 PUSH0 PUSH0 PUSH0 PUSH0 PUSH0 PUSH0 PUSH0 PUSH0 PUSH1 0x4 PUSH0 DUP12 DUP2 MSTORE PUSH1 0x20 ADD SWAP1 DUP2 MSTORE PUSH1 0x20 ADD PUSH0 KECCAK256 SWAP1 POP PUSH0 PUSH20 0xFFFFFFFFFFFFFFFFFFFFFFFFFFFFFFFFFFFFFFFF AND DUP2 PUSH0 ADD PUSH0 SWAP1 SLOAD SWAP1 PUSH2 0x100 EXP SWAP1 DIV PUSH20 0xFFFFFFFFFFFFFFFFFFFFFFFFFFFFFFFFFFFFFFFF AND PUSH20 0xFFFFFFFFFFFFFFFFFFFFFFFFFFFFFFFFFFFFFFFF AND SUB PUSH2 0x13A1 JUMPI PUSH1 0x40 MLOAD PUSH32 0x8C379A000000000000000000000000000000000000000000000000000000000 DUP2 MSTORE PUSH1 0x4 ADD PUSH2 0x1398 SWAP1 PUSH2 0x2609 JUMP JUMPDEST PUSH1 0x40 MLOAD DUP1 SWAP2 SUB SWAP1 REVERT JUMPDEST DUP1 PUSH0 ADD PUSH0 SWAP1 SLOAD SWAP1 PUSH2 0x100 EXP SWAP1 DIV PUSH20 0xFFFFFFFFFFFFFFFFFFFFFFFFFFFFFFFFFFFFFFFF AND DUP2 PUSH1 0x1 ADD PUSH0 SWAP1 SLOAD SWAP1 PUSH2 0x100 EXP SWAP1 DIV PUSH20 0xFFFFFFFFFFFFFFFFFFFFFFFFFFFFFFFFFFFFFFFF AND DUP3 PUSH1 0x2 ADD PUSH0 SWAP1 SLOAD SWAP1 PUSH2 0x100 EXP SWAP1 DIV PUSH20 0xFFFFFFFFFFFFFFFFFFFFFFFFFFFFFFFFFFFFFFFF AND DUP4 PUSH1 0x3 ADD SLOAD DUP5 PUSH1 0x4 ADD PUSH0 SWAP1 SLOAD SWAP1 PUSH2 0x100 EXP SWAP1 DIV PUSH8 0xFFFFFFFFFFFFFFFF AND DUP6 PUSH1 0x4 ADD PUSH1 0x8 SWAP1 SLOAD SWAP1 PUSH2 0x100 EXP SWAP1 DIV PUSH1 0xFF AND DUP7 PUSH1 0x4 ADD PUSH1 0x9 SWAP1 SLOAD SWAP1 PUSH2 0x100 EXP SWAP1 DIV PUSH1 0xFF AND DUP8 PUSH1 0x5 ADD SLOAD SWAP9 POP SWAP9 POP SWAP9 POP SWAP9 POP SWAP9 POP SWAP9 POP SWAP9 POP SWAP9 POP POP SWAP2 SWAP4 SWAP6 SWAP8 POP SWAP2 SWAP4 SWAP6 SWAP8 JUMP JUMPDEST PUSH1 0x2 PUSH0 SWAP1 SLOAD SWAP1 PUSH2 0x100 EXP SWAP1 DIV PUSH2 0xFFFF AND DUP2 JUMP JUMPDEST PUSH0 PUSH0 PUSH1 0x4 PUSH0 DUP6 DUP2 MSTORE PUSH1 0x20 ADD SWAP1 DUP2 MSTORE PUSH1 0x20 ADD PUSH0 KECCAK256 SWAP1 POP PUSH0 PUSH20 0xFFFFFFFFFFFFFFFFFFFFFFFFFFFFFFFFFFFFFFFF AND DUP2 PUSH0 ADD PUSH0 SWAP1 SLOAD SWAP1 PUSH2 0x100 EXP SWAP1 DIV PUSH20 0xFFFFFFFFFFFFFFFFFFFFFFFFFFFFFFFFFFFFFFFF AND PUSH20 0xFFFFFFFFFFFFFFFFFFFFFFFFFFFFFFFFFFFFFFFF AND SUB PUSH2 0x1526 JUMPI PUSH1 0x40 MLOAD PUSH32 0x8C379A000000000000000000000000000000000000000000000000000000000 DUP2 MSTORE PUSH1 0x4 ADD PUSH2 0x151D SWAP1 PUSH2 0x2609 JUMP JUMPDEST PUSH1 0x40 MLOAD DUP1 SWAP2 SUB SWAP1 REVERT JUMPDEST DUP1 PUSH1 0x6 ADD PUSH0 DUP5 PUSH20 0xFFFFFFFFFFFFFFFFFFFFFFFFFFFFFFFFFFFFFFFF AND PUSH20 0xFFFFFFFFFFFFFFFFFFFFFFFFFFFFFFFFFFFFFFFF AND DUP2 MSTORE PUSH1 0x20 ADD SWAP1 DUP2 MSTORE PUSH1 0x20 ADD PUSH0 KECCAK256 SLOAD SWAP2 POP POP SWAP3 SWAP2 POP POP JUMP JUMPDEST PUSH2 0x1577 PUSH2 0x1AAF JUMP JUMPDEST PUSH2 0xE10 DUP2 PUSH4 0xFFFFFFFF AND LT ISZERO DUP1 ISZERO PUSH2 0x1598 JUMPI POP PUSH3 0x76A700 DUP2 PUSH4 0xFFFFFFFF AND GT ISZERO JUMPDEST PUSH2 0x15D7 JUMPI PUSH1 0x40 MLOAD PUSH32 0x8C379A000000000000000000000000000000000000000000000000000000000 DUP2 MSTORE PUSH1 0x4 ADD PUSH2 0x15CE SWAP1 PUSH2 0x2C3C JUMP JUMPDEST PUSH1 0x40 MLOAD DUP1 SWAP2 SUB SWAP1 REVERT JUMPDEST PUSH0 PUSH1 0x2 DUP1 SLOAD SWAP1 PUSH2 0x100 EXP SWAP1 DIV PUSH4 0xFFFFFFFF AND SWAP1 POP DUP2 PUSH1 0x2 DUP1 PUSH2 0x100 EXP DUP2 SLOAD DUP2 PUSH4 0xFFFFFFFF MUL NOT AND SWAP1 DUP4 PUSH4 0xFFFFFFFF AND MUL OR SWAP1 SSTORE POP PUSH32 0xA0F6BDA4CC3A4861CF8C2B2F875763162BFB837E9BD2F267895FD45C49697E78 DUP2 DUP4 PUSH1 0x40 MLOAD PUSH2 0x163C SWAP3 SWAP2 SWAP1 PUSH2 0x2C5A JUMP JUMPDEST PUSH1 0x40 MLOAD DUP1 SWAP2 SUB SWAP1 LOG1 POP POP JUMP JUMPDEST PUSH2 0x1650 PUSH2 0x1AAF JUMP JUMPDEST PUSH0 PUSH20 0xFFFFFFFFFFFFFFFFFFFFFFFFFFFFFFFFFFFFFFFF AND DUP2 PUSH20 0xFFFFFFFFFFFFFFFFFFFFFFFFFFFFFFFFFFFFFFFF AND SUB PUSH2 0x16C0 JUMPI PUSH0 PUSH1 0x40 MLOAD PUSH32 0x1E4FBDF700000000000000000000000000000000000000000000000000000000 DUP2 MSTORE PUSH1 0x4 ADD PUSH2 0x16B7 SWAP2 SWAP1 PUSH2 0x227C JUMP JUMPDEST PUSH1 0x40 MLOAD DUP1 SWAP2 SUB SWAP1 REVERT JUMPDEST PUSH2 0x16C9 DUP2 PUSH2 0x1DC5 JUMP JUMPDEST POP JUMP JUMPDEST PUSH2 0x16D4 PUSH2 0x1B36 JUMP JUMPDEST PUSH0 PUSH2 0x16DE DUP3 PUSH2 0x1B7C JUMP JUMPDEST SWAP1 POP PUSH0 DUP2 PUSH1 0x2 ADD PUSH0 SWAP1 SLOAD SWAP1 PUSH2 0x100 EXP SWAP1 DIV PUSH20 0xFFFFFFFFFFFFFFFFFFFFFFFFFFFFFFFFFFFFFFFF AND PUSH20 0xFFFFFFFFFFFFFFFFFFFFFFFFFFFFFFFFFFFFFFFF AND PUSH4 0x18160DDD PUSH1 0x40 MLOAD DUP2 PUSH4 0xFFFFFFFF AND PUSH1 0xE0 SHL DUP2 MSTORE PUSH1 0x4 ADD PUSH1 0x20 PUSH1 0x40 MLOAD DUP1 DUP4 SUB DUP2 DUP7 GAS STATICCALL ISZERO DUP1 ISZERO PUSH2 0x174D JUMPI RETURNDATASIZE PUSH0 PUSH0 RETURNDATACOPY RETURNDATASIZE PUSH0 REVERT JUMPDEST POP POP POP POP PUSH1 0x40 MLOAD RETURNDATASIZE PUSH1 0x1F NOT PUSH1 0x1F DUP3 ADD AND DUP3 ADD DUP1 PUSH1 0x40 MSTORE POP DUP2 ADD SWAP1 PUSH2 0x1771 SWAP2 SWAP1 PUSH2 0x2843 JUMP JUMPDEST SWAP1 POP PUSH0 DUP2 GT PUSH2 0x17B5 JUMPI PUSH1 0x40 MLOAD PUSH32 0x8C379A000000000000000000000000000000000000000000000000000000000 DUP2 MSTORE PUSH1 0x4 ADD PUSH2 0x17AC SWAP1 PUSH2 0x2CCB JUMP JUMPDEST PUSH1 0x40 MLOAD DUP1 SWAP2 SUB SWAP1 REVERT JUMPDEST DUP1 PUSH1 0x2 PUSH0 SWAP1 SLOAD SWAP1 PUSH2 0x100 EXP SWAP1 DIV PUSH2 0xFFFF AND PUSH2 0xFFFF AND PUSH2 0x17D4 SWAP2 SWAP1 PUSH2 0x2CE9 JUMP JUMPDEST PUSH2 0x2710 DUP4 PUSH1 0x5 ADD SLOAD PUSH2 0x17E6 SWAP2 SWAP1 PUSH2 0x2CE9 JUMP JUMPDEST LT ISZERO PUSH2 0x1827 JUMPI PUSH1 0x40 MLOAD PUSH32 0x8C379A000000000000000000000000000000000000000000000000000000000 DUP2 MSTORE PUSH1 0x4 ADD PUSH2 0x181E SWAP1 PUSH2 0x2D74 JUMP JUMPDEST PUSH1 0x40 MLOAD DUP1 SWAP2 SUB SWAP1 REVERT JUMPDEST PUSH0 DUP3 PUSH0 ADD PUSH0 SWAP1 SLOAD SWAP1 PUSH2 0x100 EXP SWAP1 DIV PUSH20 0xFFFFFFFFFFFFFFFFFFFFFFFFFFFFFFFFFFFFFFFF AND SWAP1 POP DUP1 PUSH20 0xFFFFFFFFFFFFFFFFFFFFFFFFFFFFFFFFFFFFFFFF AND PUSH4 0x2C7E7AF PUSH1 0x40 MLOAD DUP2 PUSH4 0xFFFFFFFF AND PUSH1 0xE0 SHL DUP2 MSTORE PUSH1 0x4 ADD PUSH1 0x20 PUSH1 0x40 MLOAD DUP1 DUP4 SUB DUP2 DUP7 GAS STATICCALL ISZERO DUP1 ISZERO PUSH2 0x1896 JUMPI RETURNDATASIZE PUSH0 PUSH0 RETURNDATACOPY RETURNDATASIZE PUSH0 REVERT JUMPDEST POP POP POP POP PUSH1 0x40 MLOAD RETURNDATASIZE PUSH1 0x1F NOT PUSH1 0x1F DUP3 ADD AND DUP3 ADD DUP1 PUSH1 0x40 MSTORE POP DUP2 ADD SWAP1 PUSH2 0x18BA SWAP2 SWAP1 PUSH2 0x2534 JUMP JUMPDEST ISZERO PUSH2 0x18FA JUMPI PUSH1 0x40 MLOAD PUSH32 0x8C379A000000000000000000000000000000000000000000000000000000000 DUP2 MSTORE PUSH1 0x4 ADD PUSH2 0x18F1 SWAP1 PUSH2 0x2811 JUMP JUMPDEST PUSH1 0x40 MLOAD DUP1 SWAP2 SUB SWAP1 REVERT JUMPDEST DUP3 PUSH1 0x3 ADD SLOAD DUP2 PUSH20 0xFFFFFFFFFFFFFFFFFFFFFFFFFFFFFFFFFFFFFFFF AND PUSH4 0x38DFD97C PUSH1 0x40 MLOAD DUP2 PUSH4 0xFFFFFFFF AND PUSH1 0xE0 SHL DUP2 MSTORE PUSH1 0x4 ADD PUSH1 0x20 PUSH1 0x40 MLOAD DUP1 DUP4 SUB DUP2 DUP7 GAS STATICCALL ISZERO DUP1 ISZERO PUSH2 0x1948 JUMPI RETURNDATASIZE PUSH0 PUSH0 RETURNDATACOPY RETURNDATASIZE PUSH0 REVERT JUMPDEST POP POP POP POP PUSH1 0x40 MLOAD RETURNDATASIZE PUSH1 0x1F NOT PUSH1 0x1F DUP3 ADD AND DUP3 ADD DUP1 PUSH1 0x40 MSTORE POP DUP2 ADD SWAP1 PUSH2 0x196C SWAP2 SWAP1 PUSH2 0x2843 JUMP JUMPDEST EQ PUSH2 0x19AC JUMPI PUSH1 0x40 MLOAD PUSH32 0x8C379A000000000000000000000000000000000000000000000000000000000 DUP2 MSTORE PUSH1 0x4 ADD PUSH2 0x19A3 SWAP1 PUSH2 0x2DDC JUMP JUMPDEST PUSH1 0x40 MLOAD DUP1 SWAP2 SUB SWAP1 REVERT JUMPDEST PUSH1 0x1 DUP4 PUSH1 0x4 ADD PUSH1 0x8 PUSH2 0x100 EXP DUP2 SLOAD DUP2 PUSH1 0xFF MUL NOT AND SWAP1 DUP4 ISZERO ISZERO MUL OR SWAP1 SSTORE POP DUP1 PUSH20 0xFFFFFFFFFFFFFFFFFFFFFFFFFFFFFFFFFFFFFFFF AND PUSH4 0x5C4BFA10 DUP5 PUSH1 0x3 ADD SLOAD PUSH1 0x40 MLOAD DUP3 PUSH4 0xFFFFFFFF AND PUSH1 0xE0 SHL DUP2 MSTORE PUSH1 0x4 ADD PUSH0 PUSH1 0x40 MLOAD DUP1 DUP4 SUB DUP2 DUP6 DUP9 DUP1 EXTCODESIZE ISZERO DUP1 ISZERO PUSH2 0x1A13 JUMPI PUSH0 PUSH0 REVERT JUMPDEST POP GAS CALL ISZERO DUP1 ISZERO PUSH2 0x1A25 JUMPI RETURNDATASIZE PUSH0 PUSH0 RETURNDATACOPY RETURNDATASIZE PUSH0 REVERT JUMPDEST POP POP POP POP POP DUP3 PUSH0 ADD PUSH0 SWAP1 SLOAD SWAP1 PUSH2 0x100 EXP SWAP1 DIV PUSH20 0xFFFFFFFFFFFFFFFFFFFFFFFFFFFFFFFFFFFFFFFF AND PUSH20 0xFFFFFFFFFFFFFFFFFFFFFFFFFFFFFFFFFFFFFFFF AND DUP5 PUSH32 0xFF1B123B2CE1194394325209D89105D006A6AE45B909ED087F4CAE7FBACA7552 DUP6 PUSH1 0x3 ADD SLOAD CALLER PUSH1 0x40 MLOAD PUSH2 0x1A99 SWAP3 SWAP2 SWAP1 PUSH2 0x2DFA JUMP JUMPDEST PUSH1 0x40 MLOAD DUP1 SWAP2 SUB SWAP1 LOG3 POP POP POP PUSH2 0x1AAC PUSH2 0x1CF6 JUMP JUMPDEST POP JUMP JUMPDEST PUSH2 0x1AB7 PUSH2 0x1E86 JUMP JUMPDEST PUSH20 0xFFFFFFFFFFFFFFFFFFFFFFFFFFFFFFFFFFFFFFFF AND PUSH2 0x1AD5 PUSH2 0x12CE JUMP JUMPDEST PUSH20 0xFFFFFFFFFFFFFFFFFFFFFFFFFFFFFFFFFFFFFFFF AND EQ PUSH2 0x1B34 JUMPI PUSH2 0x1AF8 PUSH2 0x1E86 JUMP JUMPDEST PUSH1 0x40 MLOAD PUSH32 0x118CDAA700000000000000000000000000000000000000000000000000000000 DUP2 MSTORE PUSH1 0x4 ADD PUSH2 0x1B2B SWAP2 SWAP1 PUSH2 0x227C JUMP JUMPDEST PUSH1 0x40 MLOAD DUP1 SWAP2 SUB SWAP1 REVERT JUMPDEST JUMP JUMPDEST PUSH1 0x2 PUSH1 0x1 SLOAD SUB PUSH2 0x1B72 JUMPI PUSH1 0x40 MLOAD PUSH32 0x3EE5AEB500000000000000000000000000000000000000000000000000000000 DUP2 MSTORE PUSH1 0x4 ADD PUSH1 0x40 MLOAD DUP1 SWAP2 SUB SWAP1 REVERT JUMPDEST PUSH1 0x2 PUSH1 0x1 DUP2 SWAP1 SSTORE POP JUMP JUMPDEST PUSH0 PUSH1 0x4 PUSH0 DUP4 DUP2 MSTORE PUSH1 0x20 ADD SWAP1 DUP2 MSTORE PUSH1 0x20 ADD PUSH0 KECCAK256 SWAP1 POP PUSH0 PUSH20 0xFFFFFFFFFFFFFFFFFFFFFFFFFFFFFFFFFFFFFFFF AND DUP2 PUSH0 ADD PUSH0 SWAP1 SLOAD SWAP1 PUSH2 0x100 EXP SWAP1 DIV PUSH20 0xFFFFFFFFFFFFFFFFFFFFFFFFFFFFFFFFFFFFFFFF AND PUSH20 0xFFFFFFFFFFFFFFFFFFFFFFFFFFFFFFFFFFFFFFFF AND SUB PUSH2 0x1C20 JUMPI PUSH1 0x40 MLOAD PUSH32 0x8C379A000000000000000000000000000000000000000000000000000000000 DUP2 MSTORE PUSH1 0x4 ADD PUSH2 0x1C17 SWAP1 PUSH2 0x2609 JUMP JUMPDEST PUSH1 0x40 MLOAD DUP1 SWAP2 SUB SWAP1 REVERT JUMPDEST DUP1 PUSH1 0x4 ADD PUSH1 0x8 SWAP1 SLOAD SWAP1 PUSH2 0x100 EXP SWAP1 DIV PUSH1 0xFF AND ISZERO DUP1 ISZERO PUSH2 0x1C4E JUMPI POP DUP1 PUSH1 0x4 ADD PUSH1 0x9 SWAP1 SLOAD SWAP1 PUSH2 0x100 EXP SWAP1 DIV PUSH1 0xFF AND ISZERO JUMPDEST PUSH2 0x1C8D JUMPI PUSH1 0x40 MLOAD PUSH32 0x8C379A000000000000000000000000000000000000000000000000000000000 DUP2 MSTORE PUSH1 0x4 ADD PUSH2 0x1C84 SWAP1 PUSH2 0x2E6B JUMP JUMPDEST PUSH1 0x40 MLOAD DUP1 SWAP2 SUB SWAP1 REVERT JUMPDEST DUP1 PUSH1 0x4 ADD PUSH0 SWAP1 SLOAD SWAP1 PUSH2 0x100 EXP SWAP1 DIV PUSH8 0xFFFFFFFFFFFFFFFF AND PUSH8 0xFFFFFFFFFFFFFFFF AND TIMESTAMP GT ISZERO PUSH2 0x1CF1 JUMPI PUSH1 0x40 MLOAD PUSH32 0x8C379A000000000000000000000000000000000000000000000000000000000 DUP2 MSTORE PUSH1 0x4 ADD PUSH2 0x1CE8 SWAP1 PUSH2 0x2ED3 JUMP JUMPDEST PUSH1 0x40 MLOAD DUP1 SWAP2 SUB SWAP1 REVERT JUMPDEST SWAP2 SWAP1 POP JUMP JUMPDEST PUSH1 0x1 DUP1 DUP2 SWAP1 SSTORE POP JUMP JUMPDEST DUP1 SELFBALANCE LT ISZERO PUSH2 0x1D46 JUMPI SELFBALANCE DUP2 PUSH1 0x40 MLOAD PUSH32 0xCF47918100000000000000000000000000000000000000000000000000000000 DUP2 MSTORE PUSH1 0x4 ADD PUSH2 0x1D3D SWAP3 SWAP2 SWAP1 PUSH2 0x2EF1 JUMP JUMPDEST PUSH1 0x40 MLOAD DUP1 SWAP2 SUB SWAP1 REVERT JUMPDEST PUSH0 PUSH0 DUP4 PUSH20 0xFFFFFFFFFFFFFFFFFFFFFFFFFFFFFFFFFFFFFFFF AND DUP4 PUSH1 0x40 MLOAD PUSH2 0x1D6C SWAP1 PUSH2 0x2F45 JUMP JUMPDEST PUSH0 PUSH1 0x40 MLOAD DUP1 DUP4 SUB DUP2 DUP6 DUP8 GAS CALL SWAP3 POP POP POP RETURNDATASIZE DUP1 PUSH0 DUP2 EQ PUSH2 0x1DA6 JUMPI PUSH1 0x40 MLOAD SWAP2 POP PUSH1 0x1F NOT PUSH1 0x3F RETURNDATASIZE ADD AND DUP3 ADD PUSH1 0x40 MSTORE RETURNDATASIZE DUP3 MSTORE RETURNDATASIZE PUSH0 PUSH1 0x20 DUP5 ADD RETURNDATACOPY PUSH2 0x1DAB JUMP JUMPDEST PUSH1 0x60 SWAP2 POP JUMPDEST POP SWAP2 POP SWAP2 POP DUP2 PUSH2 0x1DBF JUMPI PUSH2 0x1DBE DUP2 PUSH2 0x1E8D JUMP JUMPDEST JUMPDEST POP POP POP POP JUMP JUMPDEST PUSH0 PUSH0 PUSH0 SWAP1 SLOAD SWAP1 PUSH2 0x100 EXP SWAP1 DIV PUSH20 0xFFFFFFFFFFFFFFFFFFFFFFFFFFFFFFFFFFFFFFFF AND SWAP1 POP DUP2 PUSH0 PUSH0 PUSH2 0x100 EXP DUP2 SLOAD DUP2 PUSH20 0xFFFFFFFFFFFFFFFFFFFFFFFFFFFFFFFFFFFFFFFF MUL NOT AND SWAP1 DUP4 PUSH20 0xFFFFFFFFFFFFFFFFFFFFFFFFFFFFFFFFFFFFFFFF AND MUL OR SWAP1 SSTORE POP DUP2 PUSH20 0xFFFFFFFFFFFFFFFFFFFFFFFFFFFFFFFFFFFFFFFF AND DUP2 PUSH20 0xFFFFFFFFFFFFFFFFFFFFFFFFFFFFFFFFFFFFFFFF AND PUSH32 0x8BE0079C531659141344CD1FD0A4F28419497F9722A3DAAFE3B4186F6B6457E0 PUSH1 0x40 MLOAD PUSH1 0x40 MLOAD DUP1 SWAP2 SUB SWAP1 LOG3 POP POP JUMP JUMPDEST PUSH0 CALLER SWAP1 POP SWAP1 JUMP JUMPDEST PUSH0 DUP2 MLOAD GT ISZERO PUSH2 0x1E9E JUMPI DUP1 MLOAD PUSH1 0x20 DUP3 ADD REVERT JUMPDEST PUSH1 0x40 MLOAD PUSH32 0xD6BDA27500000000000000000000000000000000000000000000000000000000 DUP2 MSTORE PUSH1 0x4 ADD PUSH1 0x40 MLOAD DUP1 SWAP2 SUB SWAP1 REVERT JUMPDEST PUSH0 DUP3 DUP3 MSTORE PUSH1 0x20 DUP3 ADD SWAP1 POP SWAP3 SWAP2 POP POP JUMP JUMPDEST PUSH32 0x47424D3A2064697265637420455448206E6F7420616C6C6F7765640000000000 PUSH0 DUP3 ADD MSTORE POP JUMP JUMPDEST PUSH0 PUSH2 0x1F14 PUSH1 0x1B DUP4 PUSH2 0x1ED0 JUMP JUMPDEST SWAP2 POP PUSH2 0x1F1F DUP3 PUSH2 0x1EE0 JUMP JUMPDEST PUSH1 0x20 DUP3 ADD SWAP1 POP SWAP2 SWAP1 POP JUMP JUMPDEST PUSH0 PUSH1 0x20 DUP3 ADD SWAP1 POP DUP2 DUP2 SUB PUSH0 DUP4 ADD MSTORE PUSH2 0x1F41 DUP2 PUSH2 0x1F08 JUMP JUMPDEST SWAP1 POP SWAP2 SWAP1 POP JUMP JUMPDEST PUSH0 PUSH0 REVERT JUMPDEST PUSH0 PUSH2 0xFFFF DUP3 AND SWAP1 POP SWAP2 SWAP1 POP JUMP JUMPDEST PUSH2 0x1F62 DUP2 PUSH2 0x1F4C JUMP JUMPDEST DUP2 EQ PUSH2 0x1F6C JUMPI PUSH0 PUSH0 REVERT JUMPDEST POP JUMP JUMPDEST PUSH0 DUP2 CALLDATALOAD SWAP1 POP PUSH2 0x1F7D DUP2 PUSH2 0x1F59 JUMP JUMPDEST SWAP3 SWAP2 POP POP JUMP JUMPDEST PUSH0 PUSH1 0x20 DUP3 DUP5 SUB SLT ISZERO PUSH2 0x1F98 JUMPI PUSH2 0x1F97 PUSH2 0x1F48 JUMP JUMPDEST JUMPDEST PUSH0 PUSH2 0x1FA5 DUP5 DUP3 DUP6 ADD PUSH2 0x1F6F JUMP JUMPDEST SWAP2 POP POP SWAP3 SWAP2 POP POP JUMP JUMPDEST PUSH0 DUP2 SWAP1 POP SWAP2 SWAP1 POP JUMP JUMPDEST PUSH2 0x1FC0 DUP2 PUSH2 0x1FAE JUMP JUMPDEST DUP2 EQ PUSH2 0x1FCA JUMPI PUSH0 PUSH0 REVERT JUMPDEST POP JUMP JUMPDEST PUSH0 DUP2 CALLDATALOAD SWAP1 POP PUSH2 0x1FDB DUP2 PUSH2 0x1FB7 JUMP JUMPDEST SWAP3 SWAP2 POP POP JUMP JUMPDEST PUSH0 PUSH0 PUSH1 0x40 DUP4 DUP6 SUB SLT ISZERO PUSH2 0x1FF7 JUMPI PUSH2 0x1FF6 PUSH2 0x1F48 JUMP JUMPDEST JUMPDEST PUSH0 PUSH2 0x2004 DUP6 DUP3 DUP7 ADD PUSH2 0x1FCD JUMP JUMPDEST SWAP3 POP POP PUSH1 0x20 PUSH2 0x2015 DUP6 DUP3 DUP7 ADD PUSH2 0x1FCD JUMP JUMPDEST SWAP2 POP POP SWAP3 POP SWAP3 SWAP1 POP JUMP JUMPDEST PUSH0 PUSH1 0x20 DUP3 DUP5 SUB SLT ISZERO PUSH2 0x2034 JUMPI PUSH2 0x2033 PUSH2 0x1F48 JUMP JUMPDEST JUMPDEST PUSH0 PUSH2 0x2041 DUP5 DUP3 DUP6 ADD PUSH2 0x1FCD JUMP JUMPDEST SWAP2 POP POP SWAP3 SWAP2 POP POP JUMP JUMPDEST PUSH0 PUSH20 0xFFFFFFFFFFFFFFFFFFFFFFFFFFFFFFFFFFFFFFFF DUP3 AND SWAP1 POP SWAP2 SWAP1 POP JUMP JUMPDEST PUSH0 PUSH2 0x2073 DUP3 PUSH2 0x204A JUMP JUMPDEST SWAP1 POP SWAP2 SWAP1 POP JUMP JUMPDEST PUSH2 0x2083 DUP2 PUSH2 0x2069 JUMP JUMPDEST DUP2 EQ PUSH2 0x208D JUMPI PUSH0 PUSH0 REVERT JUMPDEST POP JUMP JUMPDEST PUSH0 DUP2 CALLDATALOAD SWAP1 POP PUSH2 0x209E DUP2 PUSH2 0x207A JUMP JUMPDEST SWAP3 SWAP2 POP POP JUMP JUMPDEST PUSH0 PUSH1 0x20 DUP3 DUP5 SUB SLT ISZERO PUSH2 0x20B9 JUMPI PUSH2 0x20B8 PUSH2 0x1F48 JUMP JUMPDEST JUMPDEST PUSH0 PUSH2 0x20C6 DUP5 DUP3 DUP6 ADD PUSH2 0x2090 JUMP JUMPDEST SWAP2 POP POP SWAP3 SWAP2 POP POP JUMP JUMPDEST PUSH0 DUP2 MLOAD SWAP1 POP SWAP2 SWAP1 POP JUMP JUMPDEST PUSH0 DUP3 DUP3 MSTORE PUSH1 0x20 DUP3 ADD SWAP1 POP SWAP3 SWAP2 POP POP JUMP JUMPDEST PUSH0 DUP2 SWAP1 POP PUSH1 0x20 DUP3 ADD SWAP1 POP SWAP2 SWAP1 POP JUMP JUMPDEST PUSH2 0x2101 DUP2 PUSH2 0x1FAE JUMP JUMPDEST DUP3 MSTORE POP POP JUMP JUMPDEST PUSH0 PUSH2 0x2112 DUP4 DUP4 PUSH2 0x20F8 JUMP JUMPDEST PUSH1 0x20 DUP4 ADD SWAP1 POP SWAP3 SWAP2 POP POP JUMP JUMPDEST PUSH0 PUSH1 0x20 DUP3 ADD SWAP1 POP SWAP2 SWAP1 POP JUMP JUMPDEST PUSH0 PUSH2 0x2134 DUP3 PUSH2 0x20CF JUMP JUMPDEST PUSH2 0x213E DUP2 DUP6 PUSH2 0x20D9 JUMP JUMPDEST SWAP4 POP PUSH2 0x2149 DUP4 PUSH2 0x20E9 JUMP JUMPDEST DUP1 PUSH0 JUMPDEST DUP4 DUP2 LT ISZERO PUSH2 0x2179 JUMPI DUP2 MLOAD PUSH2 0x2160 DUP9 DUP3 PUSH2 0x2107 JUMP JUMPDEST SWAP8 POP PUSH2 0x216B DUP4 PUSH2 0x211E JUMP JUMPDEST SWAP3 POP POP PUSH1 0x1 DUP2 ADD SWAP1 POP PUSH2 0x214C JUMP JUMPDEST POP DUP6 SWAP4 POP POP POP POP SWAP3 SWAP2 POP POP JUMP JUMPDEST PUSH0 PUSH1 0x20 DUP3 ADD SWAP1 POP DUP2 DUP2 SUB PUSH0 DUP4 ADD MSTORE PUSH2 0x219E DUP2 DUP5 PUSH2 0x212A JUMP JUMPDEST SWAP1 POP SWAP3 SWAP2 POP POP JUMP JUMPDEST PUSH0 PUSH4 0xFFFFFFFF DUP3 AND SWAP1 POP SWAP2 SWAP1 POP JUMP JUMPDEST PUSH2 0x21BE DUP2 PUSH2 0x21A6 JUMP JUMPDEST DUP2 EQ PUSH2 0x21C8 JUMPI PUSH0 PUSH0 REVERT JUMPDEST POP JUMP JUMPDEST PUSH0 DUP2 CALLDATALOAD SWAP1 POP PUSH2 0x21D9 DUP2 PUSH2 0x21B5 JUMP JUMPDEST SWAP3 SWAP2 POP POP JUMP JUMPDEST PUSH0 PUSH0 PUSH1 0x40 DUP4 DUP6 SUB SLT ISZERO PUSH2 0x21F5 JUMPI PUSH2 0x21F4 PUSH2 0x1F48 JUMP JUMPDEST JUMPDEST PUSH0 PUSH2 0x2202 DUP6 DUP3 DUP7 ADD PUSH2 0x2090 JUMP JUMPDEST SWAP3 POP POP PUSH1 0x20 PUSH2 0x2213 DUP6 DUP3 DUP7 ADD PUSH2 0x21CB JUMP JUMPDEST SWAP2 POP POP SWAP3 POP SWAP3 SWAP1 POP JUMP JUMPDEST PUSH2 0x2226 DUP2 PUSH2 0x1FAE JUMP JUMPDEST DUP3 MSTORE POP POP JUMP JUMPDEST PUSH0 PUSH1 0x20 DUP3 ADD SWAP1 POP PUSH2 0x223F PUSH0 DUP4 ADD DUP5 PUSH2 0x221D JUMP JUMPDEST SWAP3 SWAP2 POP POP JUMP JUMPDEST PUSH2 0x224E DUP2 PUSH2 0x21A6 JUMP JUMPDEST DUP3 MSTORE POP POP JUMP JUMPDEST PUSH0 PUSH1 0x20 DUP3 ADD SWAP1 POP PUSH2 0x2267 PUSH0 DUP4 ADD DUP5 PUSH2 0x2245 JUMP JUMPDEST SWAP3 SWAP2 POP POP JUMP JUMPDEST PUSH2 0x2276 DUP2 PUSH2 0x2069 JUMP JUMPDEST DUP3 MSTORE POP POP JUMP JUMPDEST PUSH0 PUSH1 0x20 DUP3 ADD SWAP1 POP PUSH2 0x228F PUSH0 DUP4 ADD DUP5 PUSH2 0x226D JUMP JUMPDEST SWAP3 SWAP2 POP POP JUMP JUMPDEST PUSH0 PUSH8 0xFFFFFFFFFFFFFFFF DUP3 AND SWAP1 POP SWAP2 SWAP1 POP JUMP JUMPDEST PUSH2 0x22B1 DUP2 PUSH2 0x2295 JUMP JUMPDEST DUP3 MSTORE POP POP JUMP JUMPDEST PUSH0 DUP2 ISZERO ISZERO SWAP1 POP SWAP2 SWAP1 POP JUMP JUMPDEST PUSH2 0x22CB DUP2 PUSH2 0x22B7 JUMP JUMPDEST DUP3 MSTORE POP POP JUMP JUMPDEST PUSH0 PUSH2 0x100 DUP3 ADD SWAP1 POP PUSH2 0x22E5 PUSH0 DUP4 ADD DUP12 PUSH2 0x226D JUMP JUMPDEST PUSH2 0x22F2 PUSH1 0x20 DUP4 ADD DUP11 PUSH2 0x226D JUMP JUMPDEST PUSH2 0x22FF PUSH1 0x40 DUP4 ADD DUP10 PUSH2 0x226D JUMP JUMPDEST PUSH2 0x230C PUSH1 0x60 DUP4 ADD DUP9 PUSH2 0x221D JUMP JUMPDEST PUSH2 0x2319 PUSH1 0x80 DUP4 ADD DUP8 PUSH2 0x22A8 JUMP JUMPDEST PUSH2 0x2326 PUSH1 0xA0 DUP4 ADD DUP7 PUSH2 0x22C2 JUMP JUMPDEST PUSH2 0x2333 PUSH1 0xC0 DUP4 ADD DUP6 PUSH2 0x22C2 JUMP JUMPDEST PUSH2 0x2340 PUSH1 0xE0 DUP4 ADD DUP5 PUSH2 0x221D JUMP JUMPDEST SWAP10 SWAP9 POP POP POP POP POP POP POP POP POP JUMP JUMPDEST PUSH2 0x2356 DUP2 PUSH2 0x1F4C JUMP JUMPDEST DUP3 MSTORE POP POP JUMP JUMPDEST PUSH0 PUSH1 0x20 DUP3 ADD SWAP1 POP PUSH2 0x236F PUSH0 DUP4 ADD DUP5 PUSH2 0x234D JUMP JUMPDEST SWAP3 SWAP2 POP POP JUMP JUMPDEST PUSH0 PUSH0 PUSH1 0x40 DUP4 DUP6 SUB SLT ISZERO PUSH2 0x238B JUMPI PUSH2 0x238A PUSH2 0x1F48 JUMP JUMPDEST JUMPDEST PUSH0 PUSH2 0x2398 DUP6 DUP3 DUP7 ADD PUSH2 0x1FCD JUMP JUMPDEST SWAP3 POP POP PUSH1 0x20 PUSH2 0x23A9 DUP6 DUP3 DUP7 ADD PUSH2 0x2090 JUMP JUMPDEST SWAP2 POP POP SWAP3 POP SWAP3 SWAP1 POP JUMP JUMPDEST PUSH0 PUSH1 0x20 DUP3 DUP5 SUB SLT ISZERO PUSH2 0x23C8 JUMPI PUSH2 0x23C7 PUSH2 0x1F48 JUMP JUMPDEST JUMPDEST PUSH0 PUSH2 0x23D5 DUP5 DUP3 DUP6 ADD PUSH2 0x21CB JUMP JUMPDEST SWAP2 POP POP SWAP3 SWAP2 POP POP JUMP JUMPDEST PUSH32 0x47424D3A20626164206270730000000000000000000000000000000000000000 PUSH0 DUP3 ADD MSTORE POP JUMP JUMPDEST PUSH0 PUSH2 0x2412 PUSH1 0xC DUP4 PUSH2 0x1ED0 JUMP JUMPDEST SWAP2 POP PUSH2 0x241D DUP3 PUSH2 0x23DE JUMP JUMPDEST PUSH1 0x20 DUP3 ADD SWAP1 POP SWAP2 SWAP1 POP JUMP JUMPDEST PUSH0 PUSH1 0x20 DUP3 ADD SWAP1 POP DUP2 DUP2 SUB PUSH0 DUP4 ADD MSTORE PUSH2 0x243F DUP2 PUSH2 0x2406 JUMP JUMPDEST SWAP1 POP SWAP2 SWAP1 POP JUMP JUMPDEST PUSH0 PUSH1 0x40 DUP3 ADD SWAP1 POP PUSH2 0x2459 PUSH0 DUP4 ADD DUP6 PUSH2 0x234D JUMP JUMPDEST PUSH2 0x2466 PUSH1 0x20 DUP4 ADD DUP5 PUSH2 0x234D JUMP JUMPDEST SWAP4 SWAP3 POP POP POP JUMP JUMPDEST PUSH32 0x47424D3A207A65726F20616D6F756E7400000000000000000000000000000000 PUSH0 DUP3 ADD MSTORE POP JUMP JUMPDEST PUSH0 PUSH2 0x24A1 PUSH1 0x10 DUP4 PUSH2 0x1ED0 JUMP JUMPDEST SWAP2 POP PUSH2 0x24AC DUP3 PUSH2 0x246D JUMP JUMPDEST PUSH1 0x20 DUP3 ADD SWAP1 POP SWAP2 SWAP1 POP JUMP JUMPDEST PUSH0 PUSH1 0x20 DUP3 ADD SWAP1 POP DUP2 DUP2 SUB PUSH0 DUP4 ADD MSTORE PUSH2 0x24CE DUP2 PUSH2 0x2495 JUMP JUMPDEST SWAP1 POP SWAP2 SWAP1 POP JUMP JUMPDEST PUSH0 PUSH1 0x60 DUP3 ADD SWAP1 POP PUSH2 0x24E8 PUSH0 DUP4 ADD DUP7 PUSH2 0x226D JUMP JUMPDEST PUSH2 0x24F5 PUSH1 0x20 DUP4 ADD DUP6 PUSH2 0x226D JUMP JUMPDEST PUSH2 0x2502 PUSH1 0x40 DUP4 ADD DUP5 PUSH2 0x221D JUMP JUMPDEST SWAP5 SWAP4 POP POP POP POP JUMP JUMPDEST PUSH2 0x2513 DUP2 PUSH2 0x22B7 JUMP JUMPDEST DUP2 EQ PUSH2 0x251D JUMPI PUSH0 PUSH0 REVERT JUMPDEST POP JUMP JUMPDEST PUSH0 DUP2 MLOAD SWAP1 POP PUSH2 0x252E DUP2 PUSH2 0x250A JUMP JUMPDEST SWAP3 SWAP2 POP POP JUMP JUMPDEST PUSH0 PUSH1 0x20 DUP3 DUP5 SUB SLT ISZERO PUSH2 0x2549 JUMPI PUSH2 0x2548 PUSH2 0x1F48 JUMP JUMPDEST JUMPDEST PUSH0 PUSH2 0x2556 DUP5 DUP3 DUP6 ADD PUSH2 0x2520 JUMP JUMPDEST SWAP2 POP POP SWAP3 SWAP2 POP POP JUMP JUMPDEST PUSH32 0x4E487B7100000000000000000000000000000000000000000000000000000000 PUSH0 MSTORE PUSH1 0x11 PUSH1 0x4 MSTORE PUSH1 0x24 PUSH0 REVERT JUMPDEST PUSH0 PUSH2 0x2596 DUP3 PUSH2 0x1FAE JUMP JUMPDEST SWAP2 POP PUSH2 0x25A1 DUP4 PUSH2 0x1FAE JUMP JUMPDEST SWAP3 POP DUP3 DUP3 ADD SWAP1 POP DUP1 DUP3 GT ISZERO PUSH2 0x25B9 JUMPI PUSH2 0x25B8 PUSH2 0x255F JUMP JUMPDEST JUMPDEST SWAP3 SWAP2 POP POP JUMP JUMPDEST PUSH32 0x47424D3A206E6F2070726F706F73616C00000000000000000000000000000000 PUSH0 DUP3 ADD MSTORE POP JUMP JUMPDEST PUSH0 PUSH2 0x25F3 PUSH1 0x10 DUP4 PUSH2 0x1ED0 JUMP JUMPDEST SWAP2 POP PUSH2 0x25FE DUP3 PUSH2 0x25BF JUMP JUMPDEST PUSH1 0x20 DUP3 ADD SWAP1 POP SWAP2 SWAP1 POP JUMP JUMPDEST PUSH0 PUSH1 0x20 DUP3 ADD SWAP1 POP DUP2 DUP2 SUB PUSH0 DUP4 ADD MSTORE PUSH2 0x2620 DUP2 PUSH2 0x25E7 JUMP JUMPDEST SWAP1 POP SWAP2 SWAP1 POP JUMP JUMPDEST PUSH32 0x47424D3A20616C72656164792066696E616C697A656400000000000000000000 PUSH0 DUP3 ADD MSTORE POP JUMP JUMPDEST PUSH0 PUSH2 0x265B PUSH1 0x16 DUP4 PUSH2 0x1ED0 JUMP JUMPDEST SWAP2 POP PUSH2 0x2666 DUP3 PUSH2 0x2627 JUMP JUMPDEST PUSH1 0x20 DUP3 ADD SWAP1 POP SWAP2 SWAP1 POP JUMP JUMPDEST PUSH0 PUSH1 0x20 DUP3 ADD SWAP1 POP DUP2 DUP2 SUB PUSH0 DUP4 ADD MSTORE PUSH2 0x2688 DUP2 PUSH2 0x264F JUMP JUMPDEST SWAP1 POP SWAP2 SWAP1 POP JUMP JUMPDEST PUSH32 0x47424D3A206F6E6C792070726F706F7365720000000000000000000000000000 PUSH0 DUP3 ADD MSTORE POP JUMP JUMPDEST PUSH0 PUSH2 0x26C3 PUSH1 0x12 DUP4 PUSH2 0x1ED0 JUMP JUMPDEST SWAP2 POP PUSH2 0x26CE DUP3 PUSH2 0x268F JUMP JUMPDEST PUSH1 0x20 DUP3 ADD SWAP1 POP SWAP2 SWAP1 POP JUMP JUMPDEST PUSH0 PUSH1 0x20 DUP3 ADD SWAP1 POP DUP2 DUP2 SUB PUSH0 DUP4 ADD MSTORE PUSH2 0x26F0 DUP2 PUSH2 0x26B7 JUMP JUMPDEST SWAP1 POP SWAP2 SWAP1 POP JUMP JUMPDEST PUSH32 0x47424D3A20626164207661756C74000000000000000000000000000000000000 PUSH0 DUP3 ADD MSTORE POP JUMP JUMPDEST PUSH0 PUSH2 0x272B PUSH1 0xE DUP4 PUSH2 0x1ED0 JUMP JUMPDEST SWAP2 POP PUSH2 0x2736 DUP3 PUSH2 0x26F7 JUMP JUMPDEST PUSH1 0x20 DUP3 ADD SWAP1 POP SWAP2 SWAP1 POP JUMP JUMPDEST PUSH0 PUSH1 0x20 DUP3 ADD SWAP1 POP DUP2 DUP2 SUB PUSH0 DUP4 ADD MSTORE PUSH2 0x2758 DUP2 PUSH2 0x271F JUMP JUMPDEST SWAP1 POP SWAP2 SWAP1 POP JUMP JUMPDEST PUSH32 0x47424D3A20626164206475726174696F6E000000000000000000000000000000 PUSH0 DUP3 ADD MSTORE POP JUMP JUMPDEST PUSH0 PUSH2 0x2793 PUSH1 0x11 DUP4 PUSH2 0x1ED0 JUMP JUMPDEST SWAP2 POP PUSH2 0x279E DUP3 PUSH2 0x275F JUMP JUMPDEST PUSH1 0x20 DUP3 ADD SWAP1 POP SWAP2 SWAP1 POP JUMP JUMPDEST PUSH0 PUSH1 0x20 DUP3 ADD SWAP1 POP DUP2 DUP2 SUB PUSH0 DUP4 ADD MSTORE PUSH2 0x27C0 DUP2 PUSH2 0x2787 JUMP JUMPDEST SWAP1 POP SWAP2 SWAP1 POP JUMP JUMPDEST PUSH32 0x47424D3A20616C726561647920736F6C64000000000000000000000000000000 PUSH0 DUP3 ADD MSTORE POP JUMP JUMPDEST PUSH0 PUSH2 0x27FB PUSH1 0x11 DUP4 PUSH2 0x1ED0 JUMP JUMPDEST SWAP2 POP PUSH2 0x2806 DUP3 PUSH2 0x27C7 JUMP JUMPDEST PUSH1 0x20 DUP3 ADD SWAP1 POP SWAP2 SWAP1 POP JUMP JUMPDEST PUSH0 PUSH1 0x20 DUP3 ADD SWAP1 POP DUP2 DUP2 SUB PUSH0 DUP4 ADD MSTORE PUSH2 0x2828 DUP2 PUSH2 0x27EF JUMP JUMPDEST SWAP1 POP SWAP2 SWAP1 POP JUMP JUMPDEST PUSH0 DUP2 MLOAD SWAP1 POP PUSH2 0x283D DUP2 PUSH2 0x1FB7 JUMP JUMPDEST SWAP3 SWAP2 POP POP JUMP JUMPDEST PUSH0 PUSH1 0x20 DUP3 DUP5 SUB SLT ISZERO PUSH2 0x2858 JUMPI PUSH2 0x2857 PUSH2 0x1F48 JUMP JUMPDEST JUMPDEST PUSH0 PUSH2 0x2865 DUP5 DUP3 DUP6 ADD PUSH2 0x282F JUMP JUMPDEST SWAP2 POP POP SWAP3 SWAP2 POP POP JUMP JUMPDEST PUSH32 0x47424D3A207072696365206E6F74207365740000000000000000000000000000 PUSH0 DUP3 ADD MSTORE POP JUMP JUMPDEST PUSH0 PUSH2 0x28A2 PUSH1 0x12 DUP4 PUSH2 0x1ED0 JUMP JUMPDEST SWAP2 POP PUSH2 0x28AD DUP3 PUSH2 0x286E JUMP JUMPDEST PUSH1 0x20 DUP3 ADD SWAP1 POP SWAP2 SWAP1 POP JUMP JUMPDEST PUSH0 PUSH1 0x20 DUP3 ADD SWAP1 POP DUP2 DUP2 SUB PUSH0 DUP4 ADD MSTORE PUSH2 0x28CF DUP2 PUSH2 0x2896 JUMP JUMPDEST SWAP1 POP SWAP2 SWAP1 POP JUMP JUMPDEST PUSH32 0x47424D3A2077726F6E67204554482076616C7565000000000000000000000000 PUSH0 DUP3 ADD MSTORE POP JUMP JUMPDEST PUSH0 PUSH2 0x290A PUSH1 0x14 DUP4 PUSH2 0x1ED0 JUMP JUMPDEST SWAP2 POP PUSH2 0x2915 DUP3 PUSH2 0x28D6 JUMP JUMPDEST PUSH1 0x20 DUP3 ADD SWAP1 POP SWAP2 SWAP1 POP JUMP JUMPDEST PUSH0 PUSH1 0x20 DUP3 ADD SWAP1 POP DUP2 DUP2 SUB PUSH0 DUP4 ADD MSTORE PUSH2 0x2937 DUP2 PUSH2 0x28FE JUMP JUMPDEST SWAP1 POP SWAP2 SWAP1 POP JUMP JUMPDEST PUSH0 DUP2 MLOAD SWAP1 POP PUSH2 0x294C DUP2 PUSH2 0x207A JUMP JUMPDEST SWAP3 SWAP2 POP POP JUMP JUMPDEST PUSH0 PUSH1 0xFF DUP3 AND SWAP1 POP SWAP2 SWAP1 POP JUMP JUMPDEST PUSH2 0x2967 DUP2 PUSH2 0x2952 JUMP JUMPDEST DUP2 EQ PUSH2 0x2971 JUMPI PUSH0 PUSH0 REVERT JUMPDEST POP JUMP JUMPDEST PUSH0 DUP2 MLOAD SWAP1 POP PUSH2 0x2982 DUP2 PUSH2 0x295E JUMP JUMPDEST SWAP3 SWAP2 POP POP JUMP JUMPDEST PUSH0 PUSH0 PUSH0 PUSH0 PUSH0 PUSH0 PUSH0 PUSH0 PUSH0 PUSH2 0x120 DUP11 DUP13 SUB SLT ISZERO PUSH2 0x29A6 JUMPI PUSH2 0x29A5 PUSH2 0x1F48 JUMP JUMPDEST JUMPDEST PUSH0 PUSH2 0x29B3 DUP13 DUP3 DUP14 ADD PUSH2 0x293E JUMP JUMPDEST SWAP10 POP POP PUSH1 0x20 PUSH2 0x29C4 DUP13 DUP3 DUP14 ADD PUSH2 0x282F JUMP JUMPDEST SWAP9 POP POP PUSH1 0x40 PUSH2 0x29D5 DUP13 DUP3 DUP14 ADD PUSH2 0x293E JUMP JUMPDEST SWAP8 POP POP PUSH1 0x60 PUSH2 0x29E6 DUP13 DUP3 DUP14 ADD PUSH2 0x2520 JUMP JUMPDEST SWAP7 POP POP PUSH1 0x80 PUSH2 0x29F7 DUP13 DUP3 DUP14 ADD PUSH2 0x2520 JUMP JUMPDEST SWAP6 POP POP PUSH1 0xA0 PUSH2 0x2A08 DUP13 DUP3 DUP14 ADD PUSH2 0x282F JUMP JUMPDEST SWAP5 POP POP PUSH1 0xC0 PUSH2 0x2A19 DUP13 DUP3 DUP14 ADD PUSH2 0x282F JUMP JUMPDEST SWAP4 POP POP PUSH1 0xE0 PUSH2 0x2A2A DUP13 DUP3 DUP14 ADD PUSH2 0x282F JUMP JUMPDEST SWAP3 POP POP PUSH2 0x100 PUSH2 0x2A3C DUP13 DUP3 DUP14 ADD PUSH2 0x2974 JUMP JUMPDEST SWAP2 POP POP SWAP3 SWAP6 SWAP9 POP SWAP3 SWAP6 SWAP9 POP SWAP3 SWAP6 SWAP9 JUMP JUMPDEST PUSH32 0x47424D3A206E6F20736861726520746F6B656E00000000000000000000000000 PUSH0 DUP3 ADD MSTORE POP JUMP JUMPDEST PUSH0 PUSH2 0x2A80 PUSH1 0x13 DUP4 PUSH2 0x1ED0 JUMP JUMPDEST SWAP2 POP PUSH2 0x2A8B DUP3 PUSH2 0x2A4C JUMP JUMPDEST PUSH1 0x20 DUP3 ADD SWAP1 POP SWAP2 SWAP1 POP JUMP JUMPDEST PUSH0 PUSH1 0x20 DUP3 ADD SWAP1 POP DUP2 DUP2 SUB PUSH0 DUP4 ADD MSTORE PUSH2 0x2AAD DUP2 PUSH2 0x2A74 JUMP JUMPDEST SWAP1 POP SWAP2 SWAP1 POP JUMP JUMPDEST PUSH0 PUSH2 0x2ABE DUP3 PUSH2 0x1FAE JUMP JUMPDEST SWAP2 POP PUSH32 0xFFFFFFFFFFFFFFFFFFFFFFFFFFFFFFFFFFFFFFFFFFFFFFFFFFFFFFFFFFFFFFFF DUP3 SUB PUSH2 0x2AF0 JUMPI PUSH2 0x2AEF PUSH2 0x255F JUMP JUMPDEST JUMPDEST PUSH1 0x1 DUP3 ADD SWAP1 POP SWAP2 SWAP1 POP JUMP JUMPDEST PUSH0 PUSH1 0x60 DUP3 ADD SWAP1 POP PUSH2 0x2B0E PUSH0 DUP4 ADD DUP7 PUSH2 0x226D JUMP JUMPDEST PUSH2 0x2B1B PUSH1 0x20 DUP4 ADD DUP6 PUSH2 0x221D JUMP JUMPDEST PUSH2 0x2B28 PUSH1 0x40 DUP4 ADD DUP5 PUSH2 0x22A8 JUMP JUMPDEST SWAP5 SWAP4 POP POP POP POP JUMP JUMPDEST PUSH32 0x47424D3A20696E73756666696369656E74206C6F636B65640000000000000000 PUSH0 DUP3 ADD MSTORE POP JUMP JUMPDEST PUSH0 PUSH2 0x2B64 PUSH1 0x18 DUP4 PUSH2 0x1ED0 JUMP JUMPDEST SWAP2 POP PUSH2 0x2B6F DUP3 PUSH2 0x2B30 JUMP JUMPDEST PUSH1 0x20 DUP3 ADD SWAP1 POP SWAP2 SWAP1 POP JUMP JUMPDEST PUSH0 PUSH1 0x20 DUP3 ADD SWAP1 POP DUP2 DUP2 SUB PUSH0 DUP4 ADD MSTORE PUSH2 0x2B91 DUP2 PUSH2 0x2B58 JUMP JUMPDEST SWAP1 POP SWAP2 SWAP1 POP JUMP JUMPDEST PUSH0 PUSH2 0x2BA2 DUP3 PUSH2 0x1FAE JUMP JUMPDEST SWAP2 POP PUSH2 0x2BAD DUP4 PUSH2 0x1FAE JUMP JUMPDEST SWAP3 POP DUP3 DUP3 SUB SWAP1 POP DUP2 DUP2 GT ISZERO PUSH2 0x2BC5 JUMPI PUSH2 0x2BC4 PUSH2 0x255F JUMP JUMPDEST JUMPDEST SWAP3 SWAP2 POP POP JUMP JUMPDEST PUSH0 PUSH1 0x40 DUP3 ADD SWAP1 POP PUSH2 0x2BDE PUSH0 DUP4 ADD DUP6 PUSH2 0x226D JUMP JUMPDEST PUSH2 0x2BEB PUSH1 0x20 DUP4 ADD DUP5 PUSH2 0x221D JUMP JUMPDEST SWAP4 SWAP3 POP POP POP JUMP JUMPDEST PUSH32 0x47424D3A206F7574206F662072616E6765000000000000000000000000000000 PUSH0 DUP3 ADD MSTORE POP JUMP JUMPDEST PUSH0 PUSH2 0x2C26 PUSH1 0x11 DUP4 PUSH2 0x1ED0 JUMP JUMPDEST SWAP2 POP PUSH2 0x2C31 DUP3 PUSH2 0x2BF2 JUMP JUMPDEST PUSH1 0x20 DUP3 ADD SWAP1 POP SWAP2 SWAP1 POP JUMP JUMPDEST PUSH0 PUSH1 0x20 DUP3 ADD SWAP1 POP DUP2 DUP2 SUB PUSH0 DUP4 ADD MSTORE PUSH2 0x2C53 DUP2 PUSH2 0x2C1A JUMP JUMPDEST SWAP1 POP SWAP2 SWAP1 POP JUMP JUMPDEST PUSH0 PUSH1 0x40 DUP3 ADD SWAP1 POP PUSH2 0x2C6D PUSH0 DUP4 ADD DUP6 PUSH2 0x2245 JUMP JUMPDEST PUSH2 0x2C7A PUSH1 0x20 DUP4 ADD DUP5 PUSH2 0x2245 JUMP JUMPDEST SWAP4 SWAP3 POP POP POP JUMP JUMPDEST PUSH32 0x47424D3A2062616420737570706C790000000000000000000000000000000000 PUSH0 DUP3 ADD MSTORE POP JUMP JUMPDEST PUSH0 PUSH2 0x2CB5 PUSH1 0xF DUP4 PUSH2 0x1ED0 JUMP JUMPDEST SWAP2 POP PUSH2 0x2CC0 DUP3 PUSH2 0x2C81 JUMP JUMPDEST PUSH1 0x20 DUP3 ADD SWAP1 POP SWAP2 SWAP1 POP JUMP JUMPDEST PUSH0 PUSH1 0x20 DUP3 ADD SWAP1 POP DUP2 DUP2 SUB PUSH0 DUP4 ADD MSTORE PUSH2 0x2CE2 DUP2 PUSH2 0x2CA9 JUMP JUMPDEST SWAP1 POP SWAP2 SWAP1 POP JUMP JUMPDEST PUSH0 PUSH2 0x2CF3 DUP3 PUSH2 0x1FAE JUMP JUMPDEST SWAP2 POP PUSH2 0x2CFE DUP4 PUSH2 0x1FAE JUMP JUMPDEST SWAP3 POP DUP3 DUP3 MUL PUSH2 0x2D0C DUP2 PUSH2 0x1FAE JUMP JUMPDEST SWAP2 POP DUP3 DUP3 DIV DUP5 EQ DUP4 ISZERO OR PUSH2 0x2D23 JUMPI PUSH2 0x2D22 PUSH2 0x255F JUMP JUMPDEST JUMPDEST POP SWAP3 SWAP2 POP POP JUMP JUMPDEST PUSH32 0x47424D3A2071756F72756D206E6F742072656163686564000000000000000000 PUSH0 DUP3 ADD MSTORE POP JUMP JUMPDEST PUSH0 PUSH2 0x2D5E PUSH1 0x17 DUP4 PUSH2 0x1ED0 JUMP JUMPDEST SWAP2 POP PUSH2 0x2D69 DUP3 PUSH2 0x2D2A JUMP JUMPDEST PUSH1 0x20 DUP3 ADD SWAP1 POP SWAP2 SWAP1 POP JUMP JUMPDEST PUSH0 PUSH1 0x20 DUP3 ADD SWAP1 POP DUP2 DUP2 SUB PUSH0 DUP4 ADD MSTORE PUSH2 0x2D8B DUP2 PUSH2 0x2D52 JUMP JUMPDEST SWAP1 POP SWAP2 SWAP1 POP JUMP JUMPDEST PUSH32 0x47424D3A207072696365206368616E6765640000000000000000000000000000 PUSH0 DUP3 ADD MSTORE POP JUMP JUMPDEST PUSH0 PUSH2 0x2DC6 PUSH1 0x12 DUP4 PUSH2 0x1ED0 JUMP JUMPDEST SWAP2 POP PUSH2 0x2DD1 DUP3 PUSH2 0x2D92 JUMP JUMPDEST PUSH1 0x20 DUP3 ADD SWAP1 POP SWAP2 SWAP1 POP JUMP JUMPDEST PUSH0 PUSH1 0x20 DUP3 ADD SWAP1 POP DUP2 DUP2 SUB PUSH0 DUP4 ADD MSTORE PUSH2 0x2DF3 DUP2 PUSH2 0x2DBA JUMP JUMPDEST SWAP1 POP SWAP2 SWAP1 POP JUMP JUMPDEST PUSH0 PUSH1 0x40 DUP3 ADD SWAP1 POP PUSH2 0x2E0D PUSH0 DUP4 ADD DUP6 PUSH2 0x221D JUMP JUMPDEST PUSH2 0x2E1A PUSH1 0x20 DUP4 ADD DUP5 PUSH2 0x226D JUMP JUMPDEST SWAP4 SWAP3 POP POP POP JUMP JUMPDEST PUSH32 0x47424D3A2066696E616C697A6564000000000000000000000000000000000000 PUSH0 DUP3 ADD MSTORE POP JUMP JUMPDEST PUSH0 PUSH2 0x2E55 PUSH1 0xE DUP4 PUSH2 0x1ED0 JUMP JUMPDEST SWAP2 POP PUSH2 0x2E60 DUP3 PUSH2 0x2E21 JUMP JUMPDEST PUSH1 0x20 DUP3 ADD SWAP1 POP SWAP2 SWAP1 POP JUMP JUMPDEST PUSH0 PUSH1 0x20 DUP3 ADD SWAP1 POP DUP2 DUP2 SUB PUSH0 DUP4 ADD MSTORE PUSH2 0x2E82 DUP2 PUSH2 0x2E49 JUMP JUMPDEST SWAP1 POP SWAP2 SWAP1 POP JUMP JUMPDEST PUSH32 0x47424D3A20657870697265640000000000000000000000000000000000000000 PUSH0 DUP3 ADD MSTORE POP JUMP JUMPDEST PUSH0 PUSH2 0x2EBD PUSH1 0xC DUP4 PUSH2 0x1ED0 JUMP JUMPDEST SWAP2 POP PUSH2 0x2EC8 DUP3 PUSH2 0x2E89 JUMP JUMPDEST PUSH1 0x20 DUP3 ADD SWAP1 POP SWAP2 SWAP1 POP JUMP JUMPDEST PUSH0 PUSH1 0x20 DUP3 ADD SWAP1 POP DUP2 DUP2 SUB PUSH0 DUP4 ADD MSTORE PUSH2 0x2EEA DUP2 PUSH2 0x2EB1 JUMP JUMPDEST SWAP1 POP SWAP2 SWAP1 POP JUMP JUMPDEST PUSH0 PUSH1 0x40 DUP3 ADD SWAP1 POP PUSH2 0x2F04 PUSH0 DUP4 ADD DUP6 PUSH2 0x221D JUMP JUMPDEST PUSH2 0x2F11 PUSH1 0x20 DUP4 ADD DUP5 PUSH2 0x221D JUMP JUMPDEST SWAP4 SWAP3 POP POP POP JUMP JUMPDEST PUSH0 DUP2 SWAP1 POP SWAP3 SWAP2 POP POP JUMP JUMPDEST POP JUMP JUMPDEST PUSH0 PUSH2 0x2F30 PUSH0 DUP4 PUSH2 0x2F18 JUMP JUMPDEST SWAP2 POP PUSH2 0x2F3B DUP3 PUSH2 0x2F22 JUMP JUMPDEST PUSH0 DUP3 ADD SWAP1 POP SWAP2 SWAP1 POP JUMP JUMPDEST PUSH0 PUSH2 0x2F4F DUP3 PUSH2 0x2F25 JUMP JUMPDEST SWAP2 POP DUP2 SWAP1 POP SWAP2 SWAP1 POP JUMP INVALID LOG2 PUSH5 0x6970667358 0x22 SLT KECCAK256 0xD4 PUSH31 0xCFEA629E25EEB5FBDDD0001D00D138D0E4A9CA904C30CD3BF8AAF7C4E7AF64 PUSH20 0x6F6C634300081E00330000000000000000000000 "
		},
		"gasEstimates": {
			"creation": {
				"codeDepositCost": "2435000",
				"executionCost": "infinite",
				"totalCost": "infinite"
			},
			"external": {
				"cancel(uint256)": "infinite",
				"execute(uint256)": "infinite",
				"getLocked(uint256,address)": "infinite",
				"getProposal(uint256)": "infinite",
				"lock(uint256,uint256)": "infinite",
				"maxDuration()": "2603",
				"owner()": "2559",
				"proposalsByVault(address)": "infinite",
				"propose(address,uint32)": "infinite",
				"quorumBps()": "2555",
				"renounceOwnership()": "infinite",
				"setMaxDuration(uint32)": "infinite",
				"setQuorumBps(uint16)": "infinite",
				"transferOwnership(address)": "infinite",
				"unlock(uint256,uint256)": "infinite"
			},
			"internal": {
				"_proposalsMustBeActive(uint256)": "infinite"
			}
		},
		"methodIdentifiers": {
			"cancel(uint256)": "40e58ee5",
			"execute(uint256)": "fe0d94c1",
			"getLocked(uint256,address)": "e03d7f55",
			"getProposal(uint256)": "c7f758a8",
			"lock(uint256,uint256)": "1338736f",
			"maxDuration()": "6db5c8fd",
			"owner()": "8da5cb5b",
			"proposalsByVault(address)": "41234bdf",
			"propose(address,uint32)": "49705bbb",
			"quorumBps()": "cd2ddd0c",
			"renounceOwnership()": "715018a6",
			"setMaxDuration(uint32)": "ef921826",
			"setQuorumBps(uint16)": "0527aab6",
			"transferOwnership(address)": "f2fde38b",
			"unlock(uint256,uint256)": "5bfadb24"
		}
	},
	"abi": [
		{
			"inputs": [
				{
					"internalType": "address",
					"name": "owner_",
					"type": "address"
				}
			],
			"stateMutability": "nonpayable",
			"type": "constructor"
		},
		{
			"inputs": [],
			"name": "FailedCall",
			"type": "error"
		},
		{
			"inputs": [
				{
					"internalType": "uint256",
					"name": "balance",
					"type": "uint256"
				},
				{
					"internalType": "uint256",
					"name": "needed",
					"type": "uint256"
				}
			],
			"name": "InsufficientBalance",
			"type": "error"
		},
		{
			"inputs": [
				{
					"internalType": "address",
					"name": "owner",
					"type": "address"
				}
			],
			"name": "OwnableInvalidOwner",
			"type": "error"
		},
		{
			"inputs": [
				{
					"internalType": "address",
					"name": "account",
					"type": "address"
				}
			],
			"name": "OwnableUnauthorizedAccount",
			"type": "error"
		},
		{
			"inputs": [],
			"name": "ReentrancyGuardReentrantCall",
			"type": "error"
		},
		{
			"anonymous": false,
			"inputs": [
				{
					"indexed": true,
					"internalType": "uint256",
					"name": "proposalId",
					"type": "uint256"
				},
				{
					"indexed": true,
					"internalType": "address",
					"name": "vault",
					"type": "address"
				},
				{
					"indexed": true,
					"internalType": "address",
					"name": "proposer",
					"type": "address"
				}
			],
			"name": "Canceled",
			"type": "event"
		},
		{
			"anonymous": false,
			"inputs": [
				{
					"indexed": true,
					"internalType": "uint256",
					"name": "proposalId",
					"type": "uint256"
				},
				{
					"indexed": true,
					"internalType": "address",
					"name": "vault",
					"type": "address"
				},
				{
					"indexed": false,
					"internalType": "uint256",
					"name": "priceWei",
					"type": "uint256"
				},
				{
					"indexed": false,
					"internalType": "address",
					"name": "buyer",
					"type": "address"
				}
			],
			"name": "Executed",
			"type": "event"
		},
		{
			"anonymous": false,
			"inputs": [
				{
					"indexed": true,
					"internalType": "uint256",
					"name": "proposalId",
					"type": "uint256"
				},
				{
					"indexed": true,
					"internalType": "address",
					"name": "voter",
					"type": "address"
				},
				{
					"indexed": false,
					"internalType": "uint256",
					"name": "amount",
					"type": "uint256"
				}
			],
			"name": "Locked",
			"type": "event"
		},
		{
			"anonymous": false,
			"inputs": [
				{
					"indexed": false,
					"internalType": "uint32",
					"name": "oldDur",
					"type": "uint32"
				},
				{
					"indexed": false,
					"internalType": "uint32",
					"name": "newDur",
					"type": "uint32"
				}
			],
			"name": "MaxDurationChanged",
			"type": "event"
		},
		{
			"anonymous": false,
			"inputs": [
				{
					"indexed": true,
					"internalType": "address",
					"name": "previousOwner",
					"type": "address"
				},
				{
					"indexed": true,
					"internalType": "address",
					"name": "newOwner",
					"type": "address"
				}
			],
			"name": "OwnershipTransferred",
			"type": "event"
		},
		{
			"anonymous": false,
			"inputs": [
				{
					"indexed": true,
					"internalType": "uint256",
					"name": "proposalId",
					"type": "uint256"
				},
				{
					"indexed": true,
					"internalType": "address",
					"name": "vault",
					"type": "address"
				},
				{
					"indexed": true,
					"internalType": "address",
					"name": "proposer",
					"type": "address"
				},
				{
					"indexed": false,
					"internalType": "address",
					"name": "shareToken",
					"type": "address"
				},
				{
					"indexed": false,
					"internalType": "uint256",
					"name": "priceWei",
					"type": "uint256"
				},
				{
					"indexed": false,
					"internalType": "uint64",
					"name": "deadline",
					"type": "uint64"
				}
			],
			"name": "Proposed",
			"type": "event"
		},
		{
			"anonymous": false,
			"inputs": [
				{
					"indexed": false,
					"internalType": "uint16",
					"name": "oldBps",
					"type": "uint16"
				},
				{
					"indexed": false,
					"internalType": "uint16",
					"name": "newBps",
					"type": "uint16"
				}
			],
			"name": "QuorumBpsChanged",
			"type": "event"
		},
		{
			"anonymous": false,
			"inputs": [
				{
					"indexed": true,
					"internalType": "uint256",
					"name": "proposalId",
					"type": "uint256"
				},
				{
					"indexed": true,
					"internalType": "address",
					"name": "voter",
					"type": "address"
				},
				{
					"indexed": false,
					"internalType": "uint256",
					"name": "amount",
					"type": "uint256"
				}
			],
			"name": "Unlocked",
			"type": "event"
		},
		{
			"inputs": [
				{
					"internalType": "uint256",
					"name": "proposalId",
					"type": "uint256"
				}
			],
			"name": "cancel",
			"outputs": [],
			"stateMutability": "nonpayable",
			"type": "function"
		},
		{
			"inputs": [
				{
					"internalType": "uint256",
					"name": "proposalId",
					"type": "uint256"
				}
			],
			"name": "execute",
			"outputs": [],
			"stateMutability": "nonpayable",
			"type": "function"
		},
		{
			"inputs": [
				{
					"internalType": "uint256",
					"name": "proposalId",
					"type": "uint256"
				},
				{
					"internalType": "address",
					"name": "account",
					"type": "address"
				}
			],
			"name": "getLocked",
			"outputs": [
				{
					"internalType": "uint256",
					"name": "",
					"type": "uint256"
				}
			],
			"stateMutability": "view",
			"type": "function"
		},
		{
			"inputs": [
				{
					"internalType": "uint256",
					"name": "proposalId",
					"type": "uint256"
				}
			],
			"name": "getProposal",
			"outputs": [
				{
					"internalType": "address",
					"name": "vault",
					"type": "address"
				},
				{
					"internalType": "address",
					"name": "proposer",
					"type": "address"
				},
				{
					"internalType": "address",
					"name": "shareToken",
					"type": "address"
				},
				{
					"internalType": "uint256",
					"name": "priceWei",
					"type": "uint256"
				},
				{
					"internalType": "uint64",
					"name": "deadline",
					"type": "uint64"
				},
				{
					"internalType": "bool",
					"name": "executed",
					"type": "bool"
				},
				{
					"internalType": "bool",
					"name": "canceled",
					"type": "bool"
				},
				{
					"internalType": "uint256",
					"name": "totalLocked",
					"type": "uint256"
				}
			],
			"stateMutability": "view",
			"type": "function"
		},
		{
			"inputs": [
				{
					"internalType": "uint256",
					"name": "proposalId",
					"type": "uint256"
				},
				{
					"internalType": "uint256",
					"name": "amount",
					"type": "uint256"
				}
			],
			"name": "lock",
			"outputs": [],
			"stateMutability": "nonpayable",
			"type": "function"
		},
		{
			"inputs": [],
			"name": "maxDuration",
			"outputs": [
				{
					"internalType": "uint32",
					"name": "",
					"type": "uint32"
				}
			],
			"stateMutability": "view",
			"type": "function"
		},
		{
			"inputs": [],
			"name": "owner",
			"outputs": [
				{
					"internalType": "address",
					"name": "",
					"type": "address"
				}
			],
			"stateMutability": "view",
			"type": "function"
		},
		{
			"inputs": [
				{
					"internalType": "address",
					"name": "vault",
					"type": "address"
				}
			],
			"name": "proposalsByVault",
			"outputs": [
				{
					"internalType": "uint256[]",
					"name": "",
					"type": "uint256[]"
				}
			],
			"stateMutability": "view",
			"type": "function"
		},
		{
			"inputs": [
				{
					"internalType": "address",
					"name": "vault",
					"type": "address"
				},
				{
					"internalType": "uint32",
					"name": "durationSec",
					"type": "uint32"
				}
			],
			"name": "propose",
			"outputs": [
				{
					"internalType": "uint256",
					"name": "proposalId",
					"type": "uint256"
				}
			],
			"stateMutability": "payable",
			"type": "function"
		},
		{
			"inputs": [],
			"name": "quorumBps",
			"outputs": [
				{
					"internalType": "uint16",
					"name": "",
					"type": "uint16"
				}
			],
			"stateMutability": "view",
			"type": "function"
		},
		{
			"inputs": [],
			"name": "renounceOwnership",
			"outputs": [],
			"stateMutability": "nonpayable",
			"type": "function"
		},
		{
			"inputs": [
				{
					"internalType": "uint32",
					"name": "newMax",
					"type": "uint32"
				}
			],
			"name": "setMaxDuration",
			"outputs": [],
			"stateMutability": "nonpayable",
			"type": "function"
		},
		{
			"inputs": [
				{
					"internalType": "uint16",
					"name": "newBps",
					"type": "uint16"
				}
			],
			"name": "setQuorumBps",
			"outputs": [],
			"stateMutability": "nonpayable",
			"type": "function"
		},
		{
			"inputs": [
				{
					"internalType": "address",
					"name": "newOwner",
					"type": "address"
				}
			],
			"name": "transferOwnership",
			"outputs": [],
			"stateMutability": "nonpayable",
			"type": "function"
		},
		{
			"inputs": [
				{
					"internalType": "uint256",
					"name": "proposalId",
					"type": "uint256"
				},
				{
					"internalType": "uint256",
					"name": "amount",
					"type": "uint256"
				}
			],
			"name": "unlock",
			"outputs": [],
			"stateMutability": "nonpayable",
			"type": "function"
		},
		{
			"stateMutability": "payable",
			"type": "receive"
		}
	]
}